:400000000080002011000000010600000106000008B5044B1A6803F53F5302331A6000F0F7FA00BFFA46004010B5054C237833B9044B13B10448AFF300800123237010BD78
:400040003081FF1F00000000880D0000084B10B51BB108490848AFF300800848036803B910BD074B002BFBD0BDE81040184700BF000000003481FF1F880D0000C880FF1F08
:400080000000000008B562B6054800F0F5FC00F091FC044800F0C4FC00F05AF9FEE700BF15020000980D000000B58BB06138192800F29D80DFE800F03A9B8B592B9B9B9BDC
:4000C0009B9B9B9B9B9B9B9B0D9B499B9B9B1C7A9B69FF238DF8043000208DF805008DF80600019900F012F9424800F099FC7EE000208DF80800FF238DF809308DF80A009E
:40010000029900F003F93C4800F08AFC6FE000208DF80C008DF80D00FF238DF80E30039900F0F4F8354800F07BFC60E0344B1A889B78ADF810208DF812300499012000F0AD
:40014000E5F8304800F06CFC51E02D4B33F8042F9B78ADF814208DF816300599012000F0D5F8294800F05CFC41E0254B33F8082F9B78ADF818208DF81A300699012000F07D
:40018000C5F8224800F04CFC31E0214B1A6805321A608DF81C205A688DF81D209B688DF81E300799062000F0B1F820E0184B5A6805325A6019688DF820108DF821209B68A1
:4001C0008DF822300899062000F0A0F80FE0104A93680533936011688DF8241052688DF825208DF826300999062000F08FF80BB05DF804FBAC0D0000B40D0000BC0D000048
:400200008C0D0000C40D0000D00D0000DC0D00004C81FF1F38B500F0E1FB044609E000F0D7FB054600F0E6FB2846FFF73DFF013CE4B2002CF3D138BD08B500F0A3FA00F047
:400240000DFB00F079FB08BD08B500F04FFA08BD08B500F0B9FA08BD08B500F021FB08BD00B583B00190C0B2FFF7EEFF9DF80500FFF7EEFF9DF80600FFF7EEFF03B05DF80E
:4002800004FB00BF08B5002000F082FC012000F07FFC002000F07CFC08BD00BF08B5012000F016FD08BD00BF08B5002000F010FD08BD00BF10B5124C2078012303FA00F00E
:4002C000C043C0B200F018FCFFF7E8FF237803EB430323441A1D1B79507843EA0023907843EA0040FFF7BCFFFFF7CCFFFFF7DCFF23785A1C2270082B01D10022227010BDAE
:400300005881FF1F08B5FFF7D5FF08BD82B00191072809D800EB4000044B184402AB33F8042D9B788280837102B070475881FF1F10B582B00190002405E001992046FFF7D7
:40034000E5FF0134E4B2072CF7D902B010BD00BF00B583B00A4800F0ADFCFFF76DFF094B1A889B78ADF804208DF806300198FFF7DFFF00F0FFFB00F06FFC03B05DF804FB12
:4003800005030000E80D0000FEE700BFF0B40022174611E050F82760F3B226F0FF0608E001EB420511F812406D78A5550132013BDBB2002BF4D101371E2FEBD9F0BC70470C
:4003C000064B1B78DBB203F00701054A11701B09013213704422034B1A707047CF0100496E5800407658004008B50A46002100F0C2FC08BD38B500242C4B1C805822023351
:400400001A70012202331A801823294A13704FF49C71023211800232137045F6BF5102321180023213700222224B1A7008224FF040231A70032103F5007319701E4B1B78F7
:40044000DBB21E490B701E4B1A8041F25122023B1A8019250CE01B4B1B7803F0010343EA440404F003044FF4F07000F03DFC013D0DB1032CEFD115B90320FFF785FF124B84
:400480004FF480721A8007221A7000220F490A704820023108701A700222033B1A700C4A137843F00F03137038BD00BF80400040864000400043004008010049A1460040DE
:4004C00022420040254200400440004006400040A243004008B500F043FC08BD38B572B6364A137843F00403137000240CE0344D630019194A0011462A44084691882858D8
:40050000FFF772FF0134E4B2092CF0D900240CE02B48A20011194B000344B3F84420196CD86BFFF7D7FF0134E4B2022CF0D925494FF09040FFF72AFF234A137843F0020379
:4005400013701032137843F0020313701F4C237843F040032370A2F58632513A137843F01003137008221A491A48FFF7B3FF0A2219491A48FFF7AEFF082219491948FFF726
:40058000A9FF082218491948FFF7A4FF184A137843F008031370174D61232B70FFF72AFF81232B700122144B1A70FFF709FF0E2221461248FFF78EFF38BD00BFE8460040DF
:4005C000EC0D00007C00004803500140A04300401C0700480251004024070048C051004030070048125100403807004822510040224300400048004004000840B0430040BD
:4006000008B500F081FB03680C2B00D1FEE7FEE708B5104E104D16E029686B68AC68002204E051F8040B43F8040B0432A242F8D1E868002203E0002143F8041B0432824219
:40064000F9D11035013E002EE6D100F063FBFFF719FDFEE7010000006C0E000008B5104A104B1A60104A136843F40073136000230AE0032B03D80D4A52F8231000E00C4990
:400680000C4A42F8231001332F2BF2D90A4B1A780A4B1A70074A0A4B1A60FFF71FFF08BD0004FA050CED00E014ED00E000000000010600000080FF1FBC760040C080FF1F2D
:4006C00008ED00E0024A137843F080031370704778640040014B1870704700BF08650040014B1870704700BF48650040014B1870704700BF28650040014B1870704700BFB3
:4007000088640040014B1878704700BF68640040014B1878704700BF5865004008B501E0FFF7F6FFFFF7EEFF10F0100FF8D108BD08B5124A137803F0C00343F009031370AB
:4007400002F59072137843F001031370FF20FFF7C1FFFF20FFF7C4FF7F20FFF7C7FF0020FFF7CAFF00F0C8FA054A137843F01003137000F0C5FAFFF7D1FF08BD78640040A9
:400780009864004008B5054B1B7823B9FFF7D0FF0122024B1A70FFF795FF08BD7481FF1F024A137843F080031370704779640040014B1870704700BF0B650040014B1870AE
:4007C000704700BF4B650040014B1870704700BF2B650040014B1870704700BF8B650040014B1878704700BF6B650040014B1878704700BF5B65004008B501E0FFF7F6FFC2
:40080000FFF7EEFF10F0100FF8D108BD10B5114A137803F0C00343F0090313700E4C237843F001032370FF20FFF7C2FFFF20FFF7C5FF7F20FFF7C8FF0020FFF7CBFF00F06B
:400840005BFA237843F01003237000F059FAFFF7D3FF10BD796400409B65004008B5054B1B7823B9FFF7D2FF0122024B1A70FFF797FF08BD7581FF1F024A137843F080034B
:40088000137070477B650040014B1870704700BF0A640040014B1870704700BF4A640040014B1870704700BF2A640040014B1870704700BF89640040014B1878704700BFCD
:4008C00069640040014B1878704700BF5A64004008B501E0FFF7F6FFFFF7EEFF10F0100FF8D108BD08B5124A137803F0C00343F009031370E13A137843F001031370FF20E7
:40090000FFF7C2FFFF20FFF7C5FF7F20FFF7C8FF0020FFF7CBFF00F0EFF9064A137843F01003137000F0ECF9FFF7D2FF08BD00BF7B6500409964004008B5054B1B7823B976
:40094000FFF7D0FF0122024B1A70FFF795FF08BD7681FF1F7222084B1A702022013B1A700622A3F5AE731A70472210331A70002203F24B131A7070478A65004010B500F0A0
:40098000BBF904460A4A137843F020031370013A137843F010031370013A137843F01003137000F077F8204600F0AAF910BD00BF9A65004008B5054B1B7823B9FFF7CAFF05
:4009C0000122024B1A70FFF7D9FF08BD7781FF1F014B1878704700BF49650040044B1B7813F0200F01D0012070470020704700BF69650040024B1B780BB1024B187070478B
:400A00007781FF1F49640040034B1B7813F0040FFAD1024B18707047686500404964004038B5074B1B782BB938BDFFF7EDFF0134A4B201E005460024285D0028F5D138BD9B
:400A40007781FF1F014B1B681864704708ED00E04001C0B2014B1870704700BF00E400E00122014B1A60704700E100E00122014B1A60704780E100E010B50446FFF7F6FF8C
:400A80002046FFF7DFFF0720FFF7E2FFFFF7E8FF10BD00BF054A137843F0040313701032137843F004031370704700BFA243004008B500F021F9094A137843F0200313705B
:400AC000013A137843F0100313700232137843F01003137000F014F908BD00BF9C640040014B1878704700BF6B640040014B1878704700BF6D640040034B1B7813F0040F63
:400B0000FAD0024B187070476B6400404C64004008B501E00A4B1B780A4B1B7813F0200FF8D100F0E9F8084B1A7842F001021A701A7802F0FE021A7000F0E2F808BD00BF26
:400B40005C6400406D6400409C64004008B50F22064B1A70FFF7DCFFFFF7C2FFFFF7C6FF0023034A13700232137008BD8C6400408B64004008B5054B1B7823B9FFF7E6FFF3
:400B80000122024B1A70FFF793FF08BD7981FF1F044A137803F0FD03400000F0020018431070704720510040084A137843F0010313701032137843F00103137002F64D3200
:400BC000137843F001031370704700BFA3430040014B1870704700BF034F0040014B1880704700BF044F0040014B1880704700BF064F004008B5154A137803F0010313703B
:400C00000232137803F0FC031370114B1A7802F0CF021A701A7842F030021A701A7802F0F0021A701A7842F00F021A70094A137843F001031370FF20FFF7D0FFFF20FFF7D5
:400C4000D3FF0820FFF7C4FF08BD00BF004F00400B4F0040014F004008B5054B1B7823B9FFF7C8FF0122024B1A70FFF79DFF08BD7A81FF1F024B1B68C3F88400704700BF5C
:400C800008ED00E04001C0B2014B1870704700BF11E400E04FF40032014B1A60704700BF00E100E04FF40032014B1A60704700BF80E100E010B50446FFF7F4FF2046FFF7D5
:400CC000D9FF0720FFF7DEFFFFF7E4FF10BD00BF044A137803F0F703C00000F00800184310707047205100400230800803D000BF01380046FCD17047EFF3108072B670475C
:400D000080F31088704700BF014B1868704700BF2C81FF1F0E4B70B51E460E4C0025E41AA410A54204D056F8253098470135F8E700F08AF8084B094C1E46E41AA41000256B
:400D4000A54204D056F8253098470135F8E770BD540E0000540E0000540E00005C0E000010B5431E0A44914204D011F8014B03F8014FF8E710BD03460244934202D003F8CC
:400D8000011BFAE77047000000000000FFFF000000FFFF00FF00FF0050726F6772616D20737461727465640D0A0000005265640D0A000000477265656E0D0A00426C7565BD
:400DC0000D0A0000507572706C650D0A0000000059656C6C6F776973680D0A00547572716973680D0A000000FFFFFF00004F00400C00305100404000F05100401000000045
:400E00000140000C800C0140800300140140800400190140000300400140000A004C0140000200500140200060520040140600480600000C01401C060048800080180140AA
:400E40009C06004880004300F8B500BFF8BC08BC9E4670474D0000005D060000F8B500BFF8BC08BC9E46704729000000800E0000C880FF1F68000000500000000000000042
:400E8000000000000000000000000000000000000000000000000000000000000000000000000000460E0000000000000000000000000000000000000000000000000000DE
:400EC000000000000000000000000000000000000000000000000000000000000000000000000000CC80FF1F00000000000000000000000000000000000000000000000088
:400F000000000000000000000000000000000000000000000000000000000000000000000000000000000000000000000000000000000000000000000000000000000000B1
:400F40000000000000000000000000000000000000000000000000000000000000000000000000000000000000000000000000000000000000000000000000000000000071
:400F80000000000000000000000000000000000000000000000000000000000000000000000000000000000000000000000000000000000000000000000000000000000031
:400FC00000000000000000000000000000000000000000000000000000000000000000000000000000000000000000000000000000000000000000000000000000000000F1
:020000040003F7
:0200000480007A
:40000000024F0040045200400364004004650040010301400404014001050140010701404F0801404A090140610A0140420B0140160C0140340D0140011701402618014008
:4000400046190140501A0140401B01400240014004410140034201400343014006450140014601400347014003480140094C01400C4D0140055001400151014001300A4B79
:400080000830091010051104880D890D8C0F880F89388A728B0DE040B880BE40D804DF011F80AF800170020D0520074B09280B530F0216041704180819191B202B042E027B
:4000C000300431783202340135043608370339023F1052805405580459045B045C105F0182808413864C870788138AC48E88910292559620A220A304A403A614A88AAA544E
:40010000B020B101B2C8B304B40FB502B610BA28BE41C025C103C50CC6E0C7B0C829C9FFCAFFCBFFCEF0CF44D00CD280D405D804D904DA04DB04DC02DD02DF01E6C0EA404D
:40014000EB0200100282032006800A100B800D080E0810A012081740181019A01A201B211C401D0C1E0A2004210223102541270828402F0831023410350438083D8A3E209D
:400180004010432048204A104B805110530159015A445D425F087340774079407A018040854090089205938096209702985099019A209D209E40A104A28AA720B420B54060
:4001C000C01FC26CC48ECA21CC61CEF2D006D208D6DBE002E4040410060C0A030C090D800E100F13130C140C152C1611174319711B0E1C141F082010281C29712A022B0612
:4002000031C0321F330F361F373039823B083F404040410545D04721483249FF4AFF4BFF4DA04F045018580459045A045C225F01604062C06440654066C068C06AC06CC01D
:400240006EC0802D840285CC860D8730880289108A488B688D048E10900D9220942D95AE9751980199999A429B629C2DA210A442A604A82DB040B180B20FB307B410B5781F
:40028000B620BA08BB28BE51BF01D409D804D904DB04DC11DD10DF0100100202032004200504060107400A200B020C900EA81288144015021620171818101A011D841E46D8
:4002C0002002220E2424251D292032963410370838803B803D683F80400C410148024901500652015C205E425F0464027C027D0290809102930494209B589C189E40A08077
:40030000A2D4A340A401A58CC0F7C2F5C47ACA04CC6FCE78D001D208D6F0D810AF01B101C005C540C9FFCA07CBFFCC40CD20CEF0CF05D008D440D904DA04DB04DD12DF01CB
:40034000E040E1A8E240E3200421054006100C800D220E20141017511C101D40210124012520260C27082A402D802FA0361037093C013D083FA045A848014A804D404E0894
:400380004F2650405502561057446010630A64086EA06FF17480758089408D40C0F0C2F0C4F0CAD8CCE0CEF0D070D238D82EE040E60101020F012801310133023401350123
:4003C00037013E103F044030410645D046014702481649FF4AFF4BFF4DA04F0450185401580459045A045B045D205F01604062C06440654066C068C06AC06CC06EC000462C
:40040000012009800A840B201042131014441522180519011A101E082101228223042420278A2B023288384639803E013F4040014101421043024508480249404A084B2019
:400440004C084D02508154085680570859015D815E28608063068080912092019340961099809D029EC0A108A210A301A480A708B310B404B640C00FC20FC44BCA08CC0A03
:40048000CE9BD04BD22CD6F1D80D01100518082209080A090C040D9C0F62100811FF123015E71718181119401A4A1D602363243F2524283F2B042DFC2F01303832403378CA
:4004C000340335803604371F3B883F1056025711580459045B045C225D205F0183018401930196049E03AE04B001B101B202B404BE10C030C106C5D0C620C710C82AC9FF51
:40050000CAFFCBFFCDA0CF04D018D280D405D804D904DA04DB04DF01E040E2C0E440E540E6C0E8C0EAC0ECC0EEC00160050408200A800F221028178019701A801B881D041F
:400540001E4821402218250128202B8A3110324A3702382839803A023F0247084F2157115A205E485F0168286940701471807206731076408004830288218D0190049580DC
:40058000968497109B8A9D609E40A202A401A580A608AC04AD01B410C023C2AAC486CA0FCC8FCE8FD040D220D6D43240CC1003808F809680C01063029680D6409680AF0149
:4005C000EE10568057018B01D402D604E0019E80820286809E8082409680E6805B085C0266029A029B08B308D603D801EC011040750188408C0299019C02B501C408DE0434
:40060000E008E201EC0200070C070E0710051C05000300008080000040000000043800C000FC8003561309640102000060980002802104D80A02109884000000049A800038
:400640000798380284000000849A000000008013000F7FE0800000A0000004002306100005DEDCBF3FFFFFFF2200F008040000000000022404040404111100010000C000B0
:4006800040011011C001001140014001000000000000000000000000000000000100080260009301020008007000830103000400930160002000000040000002F300000037
:4006C00000000000600000000001930003007000E0020C0100802002000040106504030001000CE024FFFFFF62A0F0410C0000001800040004040404222200010000000088
:40070000000040020010301000101012000000000000000000000000000000000100000000000000800040808000800000000000007B7B0070000000000F0F00050000002B
:400740000000000000000000000000000000000000000000000000000000000000000000000000000000000000000000000000000000000000000000000000000000000079
:400780000000000000000000000000000000000000000000000000000000000000000000000000000000000000000000000000000000000000000000000000000000000039
:4007C00000000000000000000000000000000000000000000000000000000000000000000000000000000000000000000000000000000000000000000000000000000000F9
:4008000000000000000000000000000000000000000000000000000000000000000000000000000000000000000000000000000000000000000000000000000000000000B8
:0200000490006A
:0400000000004005B7
:0200000490105A
:04000000BC90ACAF55
:0200000490303A
:020000007C0E74
:0200000490402A
:4000000000000000000000000000000000000000000000000000000000000000000000000000000000000000000000000000000000000000000000000000000000000000C0
:400040000000000000000000000000000000000000000000000000000000000000000000000000000000000000000000000000000000000000000000000000000000000080
:400080000000000000000000000000000000000000000000000000000000000000000000000000000000000000000000000000000000000000000000000000000000000040
:4000C0000000000000000000000000000000000000000000000000000000000000000000000000000000000000000000000000000000000000000000000000000000000000
:0200000490501A
:0C00000000012E16106900012E1D8C77E7
:00000001FF