:400000000080002011000000A1040000A104000008B5044B1A6803F53F5302331A6000F05FFA00BFFA46004010B5054C237833B9044B13B10448AFF300800123237010BDD4
:40004000A0B2FF1F0000000018250000084B10B51BB108490848AFF300800848036803B910BD074B002BFBD0BDE81040184700BF00000000A4B2FF1F18250000C880FF1F76
:400080000000000000230FE040FA03F212F0010F09D0104A12781A4112F0010F03D10D494A6801324A600133052BEDDD10B582B0084A10709368084C51680191D2680092AD
:4000C000064AFE21204601F0F5FD204600F0B0FB02B010BDBCB2FF1FF0B2FF1F1C25000000231BE040FA03F212F001020AD01649097C194111F0010F04D11349CA6801322A
:40010000CA600AE04AB9104A127C1A4112F0010F03D00D498A6801328A600133052BE1DD10B582B0084A10749368084C51680191D2680092064AFE21204601F0BBFD2046E2
:4001400000F076FB02B010BDBCB2FF1FF0B2FF1F1C25000008B562B600F008F800F04EFB014800F065FBFEE75025000008B500F06BFC034800F08EFC024800F091FC08BDBC
:40018000E100000085000000FEE700BFF0B40022174611E050F82760F3B226F0FF0608E001EB420511F812406D78A5550132013BDBB2002BF4D101371A2FEBD9F0BC7047A9
:4001C00010B4184B1B78DBB203F00701164A11701B09013213700222144B1A70012230331A70092203F22F731A70102103F5DA73197080230E4A137040220E4802702024AE
:400200006830047043300270013003702C300270094A1370094B19704422A3F2E2231A7010BC7047CF0100496E5800400D510040245A0040285A0040045B0040585B0040CC
:4002400008B50A46002101F02CFD08BD08B501F01DFD08BD38B50024324B1C80502202331A70332202331A8018232F4A137040F65F11023211800232137004222B492C48FE
:40028000FFF7E4FF02222B4B1A7008224FF040231A70032103F500731970274B1B78DBB226490B70264B1A8041F25122023B1A8019250CE0234B1B7803F0010343EA440438
:4002C00004F003044FF4F07001F0FAF8013D0DB1032CEFD115B90320FFF756FF1A4B4FF480721A8007221A70002218490A704820023108701A700222033B1A7004220A3386
:400300001A70134A137843F007031370013A137843F001031370013A137843F08003137038BD00BF8040004086400040D0040048004100400043004008010049A1460040B9
:4003400022420040254200400440004006400040A243004038B572B63B4A137843F00403137000240CE0394D630019194A0011462A44084691882858FFF762FF0134E4B2DE
:40038000062CF0D900240BE03049A3001819420088180622016BC06AFFF758FF0134E4B2002CF1D02A494FF09040FFF7EFFE0824284B1C70042228492848FFF747FF284AFC
:4003C000137843F0020313701032137843F002031370244D2B7843F040032B70A2F58632513A137843F01003137022461E491F48FFF72CFF0A221E491E48FFF727FF224608
:400400001D491E48FFF722FF22461D491D48FFF71DFF22461C491D48FFF718FF1C4A1378234313701B4C61232370FFF713FF812323700122184B1A70FFF7C2FE0E22294659
:400440001648FFF703FF38BDE8460040742500006C00004883580040D40400485076004003500140A0430040A404004802510040AC040048C0510040B8040048125100400B
:40048000C004004822510040C804004832510040224300400048004004000840B043004008B501F0C7FB03680C2B00D1FEE7FEE708B5094B1A681044084BC31A802B02DCAD
:4004C000054B186005E001F0B5FB0C2303604FF0FF32104608BD00BFCC80FF1F00B4FF1F08B5104E104D16E029686B68AC68002204E051F8040B43F8040B0432A242F8D125
:40050000E868002203E0002143F8041B04328242F9D11035013E002EE6D101F091FBFFF719FEFEE7010000000426000008B5114A114B1A60114A136843F400731360002320
:400540000AE0032B03D80E4A52F8231000E00D490D4A42F8231001332F2BF2D90B4B1A780B4B1A70084A0B4B1A60FFF7F3FE00F013F808BD0004FA050CED00E014ED00E012
:4005800000000000A10400000080FF1FBC760040C080FF1F08ED00E00B4A7F2313708021517007E0DA0002F1804202F5F042013BDBB21370002BF5D1DB0003F1804303F511
:4005C000F04300221A707047D080FF1F172815D831B103010A495A5C42F020025A5405E0030107495A5C02F0DF025A540001044A835C43F00103835400207047012070477F
:400600001070004017280BD80001064A835C03F0F103490001F00E011943815400207047012070471070004041F6FF73994201D14FF4005141F6FF739A4201D14FF4005202
:40064000172808D8C00000F1804000F5EC408180C280002070470120704700BF172805D8034B03EB0010417200207047012070471070004017281BD810B4C00000F1804423
:4006800004F5EC44D201D2B201F07F01114321709DF804201201D2B203F00F03134363709DF8083003F00F03A3700020E07001E00120704710BC704710B500F009FF0A4B43
:4006C0005B78182B0BD9084A1478013B5370E30003F1804303F5F0431B78137000E0FF2400F0FAFE204610BDD080FF1F10F0800F0CD111F4704F0BD1C00000F1804000F54A
:40070000F04001808270C37000207047012070470120704710F0800F08D1C00000F1804000F5F0408180C280002070470120704701BE704708B5034B1B7A00FB03F000F078
:40074000BFFE08BDD880FF1F70B504460E46074B1D681F2802D90020FFF7EAFF04F01F04103455F8240045F8246070BD08ED00E038B504460D46072902D90020FFF7D8FFB5
:400780001F2C02D90020FFF7D3FF04F01F0000F1604000F564406D01EDB2057038BD00BF7222074B1A70202204331A700622643B1A70472210331A70002251331A707047D7
:4007C0008B64004010B500F083FE04460A4A137843F0200313700432137843F010031370033A137843F01003137000F033F8204600F072FE10BD00BF9B64004008B5054BBE
:400800001B7823B9FFF7CCFF0122024B1A70FFF7D9FF08BDCDB2FF1F034B1B7813F0040FFAD1024B187070476C6400404F64004038B5074B1B782BB938BDFFF7EDFF01344B
:40084000A4B201E005460024285D0028F5D138BDCDB2FF1F054A137843F0020313701032137843F002031370704700BFA243004070B5012000F034FE00F080FA0446431C9A
:40088000052B03DD002000F073FA03E00130C0B200F06EFA2D4BB3F90030002B02DA00222A4B1A80294BB3F90050C5F3C715032C02D1284600F084FA294640F63800244B13
:4008C00000FB043000F0BEF900283AD040F6380303FB04F31E4AD35C022B04D0042B25D0002B2ED10BE0012000FA04F4194B18782043C0B21870184B1B68984721E0012569
:40090000A540ED436DB2134E307828403070124B1B689847707840FA04F414F0010F10D0284070700D4B1B6898470AE0012000FA04F4084B58782043C0B25870074B1B6811
:400940009847002000F0CCFD70BD00BFF0B3FF1FE880FF1FCFB2FF1FECB2FF1FE8B2FF1F2DE9F84F41F6FF734FF480420121022000F07CF98346FFF79FFE0546FFF79CFE8E
:400980008246FFF799FE8146FFF796FE8046FFF793FE0746FFF790FE06460023524602212846FFF7A3FE00234A4602215046FFF79DFE0023424602214846FFF797FE00233D
:4009C0003A4602214046FFF791FE0023324602213846FFF78BFE04232A4602213046FFF785FE184CA4B2224644F610612846FFF791FE224644F610615046FFF78BFE224695
:400A000044F610614846FFF785FE224644F610614046FFF77FFE224644F610613846FFF779FE224644F610613046FFF773FE29465846FFF713FE01215846FFF7C7FDBDE8D7
:400A4000F88F00BFF0B3FF1F10B500240AE040F24D125A2140F638000C4B00FB043000F025F80134052CF2D900F074F900F0CCFB022000F0DDFB00F0E7FB00F0D9F9FFF7D6
:400A80006FFF034800F00CFD10BD00BFE880FF1F71080000014B1860704700BFECB2FF1F014B1860704700BFE8B2FF1F38B504460D46114600F2244000F0B6FD294604F1D3
:400AC000100000F0B1FD002323704FF6FF736380A38038BD38B50446037813B1022B12D038BD90F92E3853B9D0F828580021284601F066F818B1284601F076F860804FF68A
:400B0000FF73A38038BD90F92E381BB1B0F82438462B12D9D4F828580021284601F032F870B9B4F9020000F045FE0146284600F08BFD01F059F8A08038BD4FF6FF738380D1
:400B400038BD00BF2DE9F04383B00446057800F224460DF10701304600F03CFD002861D1B4F90230002B5DDD2278042A5AD8DFE802F0030F24594E009DF80700C31AA279BB
:400B800093424FDD01232370304600F039FD49E09DF80700C31AE279934204DA00232370304600F02DFDB4F82438182B3AD902232370304600F024FD34E09DF80700C01AC4
:400BC00000F0F8FD8046D4F80890B4F90470384600F0F0FD494600F041FE0146404600F0F9FF30B1002F04DD04232370304600F007FDB4F902209DF807309B1AE279934262
:400C000010DA00232370304600F0FAFC0AE09DF80700C31AE279934204DA00232370304600F0EEFC23789D4204D0012D04D12BB1012004E0002002E0012000E0002003B039
:400C4000BDE8F08338B5044600F22445284600F077FC284600F050FC2046FFF773FF05462046FFF737FF284638BD00BFF0B583B016461F460B4C0A25257000230193009384
:400C80002B460A4601462846FFF7F4FC3A4631462078FFF7C9FC02212078FFF7B3FC207803B0F0BD38B2FF1F084A137843F0040313701032137843F00403137002F5A5521C
:400CC0001E32137843F0800313707047A9430040044A137803F0FC0300F0030018431070704700BF09580040072809D8054B1A7802F08F021A701A780001C0B2104318706E
:400D0000704700BF0A580040032809D8054B1A7802F0F3021A701A788000C0B210431870704700BF0A58004008B50222084B1A700C2201331A70012201331A700320FFF721
:400D4000D3FF0320FFF7E0FF0320FFF7C1FF08BD0858004008B5054B1B7823B90122034B1A70FFF7E1FFFFF79FFF08BDD1B2FF1F014B1870704700BF7D640040014B1878DD
:400D8000704700BF7D640040054A137843F0040313701032137843F004031370704700BFA8430040054B1A7802F0FD021A701A7800F0020010431870704700BF28580040E8
:400DC000014B1870704700BF825B0040064B1B78C3F3810303F19243063393F82831DBB2024A1370704700BF285800400A46004008B5064B1A7802F0F3021A701A7800F0D3
:400E00000C0010431870FFF7E1FF08BD2858004008B50023054A1370013213700420FFF7E7FF0220FFF7BEFF08BD00BF2858004008B5074B1B7823B9FFF7EAFF0122044B20
:400E40001A70FFF7A1FF6420FFF7BAFF08BD00BFD2B2FF1F10B59DF80840012C51D1013809282ED8DFE800F0052D2D052D2D0F192D230F2B03D92548007840B222E0244850
:400E8000007840B21EE00F2B03D92248007840B218E02148007840B214E00F2B03D91F48007840B20EE01E48007840B20AE00F2B03D91C48007840B204E01B48007840B2FD
:400EC00000E0002001EB401101FB02F1C90B8AB20D2B0BD8C3F10E0289B211418AB2611E124800EB810101338B7005E0631E0F4901EB83030F219970013C0C4B23F824203D
:400F000010BD0020FFF714FC10BD00BF180100491C010049190100491D0100491A0100491E0100491B0100491F010049D4B2FF1FF8B5074600F0CCFA06460D4D2B7843F036
:400F400003032B700B4C237843F0030323700A4B1F700320FFF7EEFB2B7803F0FC032B70237803F0FC032370304600F0B5FAF8BDF8460040F9460040925800400022304B4E
:400F80001A7101285AD170B538222E4B1A70032502331D70062201331A70002401331C7001331C703F2201331A7002331C7001331C7001331C700223234A1370502102F57F
:400FC000276211701321013211702B21013211700132147044210332117048210132117001321370194B1C7001331C700A2601331E70432201331A705220FFF799FFC022B3
:40100000134B1A7001331D70052005331870012501331D7001331C7001331E7043F233320C4B1A60294600F031F92946952000F0B1F909491D20FFF787FB70BD704700BF5D
:40104000D4B2FF1F004E0040144E00408E58004094580040F4B3FF1F59120000F0B583B02A4D01272F702A4E00247471102000F0FBF8102000F07CF907211D20FFF778FB0D
:401080000422244B1A7001331C7007331C70224A137843F018031370204B1C7003F2F5231C7001331C700A22A3F209331A7001331C701B4A137843F0100313705B22194B92
:4010C0001A705E2201331A7004331C701422A3F68C231A70009710234FF4004249F25B110520FFF7B7FE2B78013B06EB83039A780D4B1A702B78013B36F823200B4B1A800D
:401100002878FFF73BFF03B0F0BD00BF39B2FF1FD4B2FF1F96580040075B00409358004083580040885800400E4E00400C4E004070B500F0CDF906462A4B1B782A4B1A7871
:4011400042F001021A701A7842F010021A7010331A7842F001021A701A7842F010021A70224D2B7843F002032B70214C237843F0020323701F4A137843F0030313700320D1
:40118000FFF7D8FA2B7803F0FD032B70237803F0FD032370184A137843F0060313707A22164B1A70164A137843F0010313701032137843F0010313700F3A137843F00103AB
:4011C00013701032137843F0010313704FF000530C4A1360A2F5C0721360304600F07CF970BD00BF39B2FF1FAA430040F8460040F946004091580040775800408258004002
:40120000A143004080E200E008B5084B9B794BB9064BDB7913F0FF0F01D1FFF71FFF0122024B9A71FFF784FF08BD00BFD4B2FF1F044A137803F0FC0300F0030018431070CF
:40124000704700BF144E0040024A137843F0010313707047004E0040704700BF014B188880B2704780400040034B1A7800F0F80010431870704700BF82400040024B18783D
:4012800000F00700704700BF8240004070B505460E46FFF7F3FF0446FFF7E0FFA84256D02B4B1B7803F0010294B900B185B938B9284B1D80284A137803F0BF03137070BD46
:4012C000254A137843F040031370224B1D8070BD22B3002321490B7001240F310C7004310B700C390B7803F07F030B701A4B1B7813F0080F00D08DB9194B18800721013B16
:401300001970164B1B7813F0010FFAD110490B7803F0FE030B700021104B19700C4B1B7813F0010F0DD00E4B1D800EB1032200E001220A4B1A70094B1B7813F0010FFAD1A7
:4013400070BD044B1D8002490B7813430B7070BDA243004080400040824000400140004002400040014B188880B2704700410040034B1A7800F0F80010431870704700BFEF
:4013800002410040024B187800F00700704700BF0241004070B505460E46FFF7F3FF0446FFF7E0FFA84256D02B4B1B7803F0010294B900B185B938B9284B1D80284A1378C9
:4013C00003F0BF03137070BD254A137843F040031370224B1D8070BD22B3002321490B70012413310C7004390B7008390B7803F07F030B701A4B1B7813F0080F00D08DB908
:40140000194B18800721013B1970164B1B7813F0010FFAD110490B7803F0FE030B700021104B19700C4B1B7813F0010F0DD00E4B1D800EB1032200E001220A4B1A70094BB7
:401440001B7813F0010FFAD170BD044B1D8002490B7813430B7070BDA143004000410040024100400140004002400040014B1B681864704708ED00E04001C0B2014B18708D
:40148000704700BF00E400E00122014B1A60704700E100E00122014B1A60704780E100E010B50446FFF7F6FF2046FFF7DFFF0620FFF7E2FFFFF7E8FF10BD00BF0000000016
:4014C0000230800803D000BF01380046FCD17047EFF3108072B6704780F31088704700BF044A137803F0BF03800100F040001843107070472051004010B4FF2380F80834AF
:40150000002380F80934B0F8104490F90A34012B01D1B0F8004400230DE090F80814C25C914201D980F8082490F809148A4201D980F809240133A342EFD310BC704700BFF6
:4015400070B5044690F90A34FBB1D0F80C040844C4F80C04B4F800345D1CADB2A4F80054E15400F023F90646284600F023F90146304600F027FAC4F80404B4F810349D4289
:401580001DD3002384F80A3419E0B0F80034C05C5A1CA4F80024E154091AD4F80C040844C4F80C0400F002F90546B4F8100400F001F90146284600F005FAC4F80404B4F8F7
:4015C0000024B4F810349A4202D30023A4F8003470BD00BF0346B0F8002442B990F90A0450B9B3F81024013A9B5C0B707047013A835C0B70002070474FF0FF30704700BF04
:401600000023A0F80034074AC0F80424FF2280F8082480F80934012280F80A24C0F80C34704700BF000080BF08B5B1F5806F01D94FF48061A0F81014FFF7E2FF08BD00BF33
:4016400080F0004002E000BF81F0004142001FBF5FEA410392EA030F7FEA226C7FEA236C6AD04FEA1262D2EB1363C1BFD218414048404140B8BF5B42192B88BF704710F0D9
:40168000004F40F4000020F07F4018BF404211F0004F41F4000121F07F4118BF494292EA030F3FD0A2F1010241FA03FC10EB0C00C3F1200301FA03F100F0004302D54942F7
:4016C00060EB4000B0F5000F13D3B0F1807F06D340084FEA310102F10102FE2A51D2B1F1004F40EBC25008BF20F0010040EA03007047490040EB000010F4000FA2F1010251
:40170000EDD1B0FA80FCACF1080CB2EB0C0200FA0CF0AABF00EBC25052421843BCBFD0401843704792F0000F81F4000106BF80F400000132013BB5E74FEA41037FEA226CC2
:4017400018BF7FEA236C21D092EA030F04D092F0000F08BF0846704790EA010F1CBF0020704712F07F4F04D1400028BF40F00040704712F100723CBF00F50000704700F0AF
:40178000004343F0FE4040F4000070477FEA226216BF08467FEA23630146420206BF5FEA412390EA010F40F4800070474FF0000304E000BF10F0004348BF40425FEA000C93
:4017C00008BF704743F0964301464FF000001CE050EA010208BF70474FF000030AE000BF50EA010208BF704711F0004302D5404261EB41015FEA010C02BF84460146002009
:4018000043F0B64308BFA3F18053A3F50003BCFA8CF2083AA3EBC25310DB01FA02FC634400FA02FCC2F12002BCF1004F20FA02F243EB020008BF20F00100704702F1200264
:4018400001FA02FCC2F1200250EA4C0021FA02F243EB020008BF20EADC7070474FF0FF0C1CEAD0521EBF1CEAD15392EA0C0F93EA0C0F6FD01A4480EA010C400218BF5FEAE3
:4018800041211ED04FF0006343EA501043EA5111A0FB01310CF00040B1F5000F3EBF490041EAD3715B0040EA010062F17F02FD2A1DD8B3F1004F40EBC25008BF20F0010029
:4018C000704790F0000F0CF0004C08BF49024CEA502040EA51207F3AC2BFD2F1FF0340EAC250704740F400004FF00003013A5DDC12F1190FDCBF00F000407047C2F10002C9
:40190000410021FA02F1C2F1200200FA02FC5FEA310040F1000053EA4C0308BF20EADC70704792F0000F00F0004C02BF400010F4000F013AF9D040EA0C0093F0000F01F0E2
:40194000004C02BF490011F4000F013BF9D041EA0C018FE70CEAD15392EA0C0F18BF93EA0C0F0AD030F0004C18BF31F0004CD8D180EA010000F00040704790F0000F17BF40
:4019800090F0004F084691F0000F91F0004F14D092EA0C0F01D142020FD193EA0C0F03D14B0218BF084608D180EA010000F0004040F0FE4040F40000704740F0FE4040F4EC
:4019C000400070474FF0FF0C1CEAD0521EBF1CEAD15392EA0C0F93EA0C0F69D0A2EB030280EA010C49024FEA402037D04FF0805343EA111143EA10130CF000408B4238BF6A
:401A00005B0042F17D024FF4000C8B4224BF5B1A40EA0C00B3EB510F24BFA3EB510340EA5C00B3EB910F24BFA3EB910340EA9C00B3EBD10F24BFA3EBD10340EADC001B01B8
:401A400018BF5FEA1C1CE0D1FD2A3FF650AF8B4240EBC25008BF20F0010070470CF0004C4CEA50207F32C2BFD2F1FF0340EAC250704740F400004FF00003013A37E792F040
:401A8000000F00F0004C02BF400010F4000F013AF9D040EA0C0093F0000F01F0004C02BF490011F4000F013BF9D041EA0C0195E70CEAD15392EA0C0F08D142027FF47DAF7A
:401AC00093EA0C0F7FF470AF084676E793EA0C0F04D14B023FF44CAF08466EE730F0004C18BF31F0004CCAD130F000427FF45CAF31F000437FF43CAF5FE700BF4FF0FF3C1A
:401B000006E000BF4FF0010C02E000BF4FF0010C4DF804CD4FEA40024FEA41037FEA226C18BF7FEA236C11D001B052EA530C18BF90EA010F58BFB2EB030088BFC81738BF91
:401B40006FEAE17018BF40F0010070477FEA226C02D15FEA402C05D17FEA236CE4D15FEA412CE1D05DF8040B704700BF844608466146FFE70FB5FFF7C9FF002848BF10F162
:401B8000000F0FBD4DF808EDFFF7F4FF0CBF012000205DF808FB00BF4DF808EDFFF7EAFF34BF012000205DF808FB00BF4DF808EDFFF7E0FF94BF012000205DF808FB00BFE6
:401BC0004DF808EDFFF7D2FF94BF012000205DF808FB00BF4DF808EDFFF7C8FF34BF012000205DF808FB00BF4FEA4002B2F1FE4F0FD34FF09E03B3EB12620DD94FEA002376
:401C000043F0004310F0004F23FA02F018BF404270474FF00000704712F1610F01D1420205D110F0004008BF6FF0004070474FF000007047014B1868704700BF9CB2FF1F6A
:401C40000E4B70B51E460E4C0025E41AA410A54204D056F8253098470135F8E700F0C0FC084B094C1E46E41AA4100025A54204D056F8253098470135F8E770BDEC250000E0
:401C8000EC250000EC250000F425000010B5431E0A44914204D011F8014B03F8014FF8E710BD03460244934202D003F8011BFAE7704700000CB430B5164B0C1E9DB01D689B
:401CC00004DA8B232B604FF0FF301EE04FF40273ADF814300CBF234604F1FF33049307934FF6FF7302900690ADF81630209A21AB02A92846019300F069F8431CBCBF8B235E
:401D00002B6014B1029B00221A701DB0BDE8304002B070479CB2FF1F2DE9F0478E6882469E420C46914698463ED88A8912F4906F3AD02568096902236F1A656905EB450574
:401D400095FBF3F57B1C43449D4238BF1D4653050FD5294600F040FB064698B13A462169FFF794FFA38923F4906343F08003A38113E02A4600F08EFB064670B92169504615
:401D800000F0DEFA0C23CAF80030A3894FF0FF3043F04003A381BDE8F08726613E44266046466561ED1BA560464528BF464649463246206800F0A8FAA36800209B1BA360F9
:401DC00023681E442660BDE8F08700002DE9F04F9DB003938B8980461C060D4616460DD50B695BB9402100F0F7FA2860286118B90C23C8F80030CDE040236B610023099329
:401E000020238DF82930DFF89CB130238DF82A3037463C4614F8013B1BB9B7EB060910D003E0252BF9D02746F3E74B46324629464046FFF771FF013000F0A780099B4B445D
:401E400009933B78002B00F0A08000234FF0FF3204930793059206938DF853301A930126052221784E4800F041FA671C049B38B14B4A3C46801A06FA00F018430490EFE716
:401E8000D90644BF20228DF853201A0744BF2B228DF8532022782A2A03D0079A00210A200BE0039A111D12680391002A10DA524243F00200079204900BE027463B780134E2
:401EC000303B092B03D800FB02320121F5E701B107923B782E2B1ED17B782A2B0AD1039B02371A1D1B680392002BB8BF4FF0FF33059310E0002319460593781C0A240746E8
:401F00003A780130303A092A03D804FB01210123F5E703B1059103223978224800F0E6F940B14023CBEB000003FA00F0049B013718430490397806221B487E1C8DF828107C
:401F400000F0D4F988B1194B33B9039B073323F007030833039314E003AB00932A46144B04A94046AFF3008007E003AB00932A460F4B04A9404600F093F8B0F1FF3F8246B5
:401F800003D0099B5344099342E7AB895B0601D4099801E04FF0FF301DB0BDE8F08F00BFAC250000B2250000B625000000000000191D00002DE9F04791461F460A698B689C
:401FC00006469342B8BF1346C9F8003091F843200C46DDF8208012B10133C9F800302368990642BFD9F800300233C9F80030256815F0060510D104F1190A07E001235246D9
:4020000039463046C04701301AD00135E368D9F800209B1A9D42F1DB94F843302268003318BF012392060FD5E118302081F843005A1C94F845102244023382F8431003E0DD
:402040004FF0FF30BDE8F08704F1430239463046C0470130F4D02268D9F80050E36802F00602042A08BF5D1B2269A3680CBF25EAE57500259342C4BF9B1AED184FF0000905
:402080001A344D4509D00123224639463046C0470130D5D009F10109F3E70020BDE8F0872DE9F04317460A7E85B06E2A984606460C460C9B01F1430E00F0AE8011D8632AFA
:4020C00022D009D8002A00F0BB80582A40F0CA8081F84520834955E0642A1ED0692A1CD0C0E0732A00F0B08009D86F2A2ED0702A40F0B8800A6842F020020A603EE0752A1E
:4021000024D0782A3AD0ADE01A6801F14205111D1960136884F84230A8E021681A6811F0800F02D0111D196008E011F0400F02F10401196002D0B2F9003000E01368002B2F
:402140003CDA2D225B4284F8432037E021681A6811F0800F02D0111D196007E011F0400F02F10401196001D0138800E01368227E5C496F2A14BF0A2208221BE078225A49A5
:4021800084F845202268186812F0800F00F104051D6003D1550601D5038800E00368D00744BF42F0200222601BB9226822F0200222601022002084F8430001E049490A22DD
:4021C0006568002DA56008DB206820F0040020602BB9002D7DD175460CE0002B79D07546B3FBF2F002FB1033CB5C05F8013D03460028F5D1082A0BD12368DA0708D5236960
:4022000062689A42DEBF302305F8013C05F1FF35C5EB0E0323612EE008681A6810F0800F496903D0101D1860136808E010F0400F02F104001860136801D0198000E0196047
:4022400000232361754616E01A68111D1960156800216268284600F049F808B1401B6060636804E004F1420584F8422001232361002384F84330CDF800803B4603AA2146A5
:402280003046FFF797FE013002D14FF0FF3026E023692A4639463046C0470130F5D023689B0710D5002504F1190907E001234A4639463046C0470130E7D00135E368039ACC
:4022C0009B1A9D42F2DBE068039B9842B8BF184605E00B7804F1420584F842308AE705B0BDE8F083BD250000CE25000010B5C9B202449042034605D01C7801308C42F8D171
:40230000184610BD002010BD884210B501EB020301D8421E0BE09842FBD28118D21AD34204D013F8014D01F8014DF8E710BD994204D011F8014B02F8014FF8E710BD000086
:4023400038B50546002944D051F8043C0C1F002BB8BFE41800F0D4F81E4A1368114613B96360146030E0A3420DD92268A018834201BF18685B681218226063600C6023E0DA
:40238000A24203D813465A68002AF9D118681918A1420BD12168014458188242196013D110685268014419605A600DE002D90C232B6009E021686018824201BF10685268B4
:4023C0000918216062605C602846BDE8384000F098B838BDE4B2FF1F70B5CD1C25F0030508350C2D38BF0C25002D064601DBA94202D90C23336046E000F082F8234B1C6821
:402400001A462146A1B10B685B1B0ED40B2B03D90B60CC18CD501EE08C420BBF63684B681360636018BF0C4615E00C464968E9E7174C23681BB9304600F052F8206029469E
:40244000304600F04DF8431C18D0C41C24F00304A0420DD12560304600F053F804F10B00231D20F00700C31A0ED05A42E25070BD211A304600F034F80130EBD10C233360F0
:40248000304600F03EF8002070BD00BFE4B2FF1FE0B2FF1FF8B5074615460E4621B91146BDE8F840FFF798BF1AB9FFF749FF2846F8BD00F027F885420ED929463846FFF738
:4024C0008BFF044650B131462A46FFF7DFFB31463846FFF735FF01E03046F8BD2046F8BD38B5064C0023054608462360FDF7E0FF431C02D1236803B12B6038BDF8B3FF1FFF
:402500007047704751F8040C0028BEBF091851F8043CC018043870470000000072656D6F766564436F756E743A2025642C20706C61636564436F756E743A2025642C206887
:402540006974436F756E743A2025640D0A00000043757053656E736F725F494620546573742050726F6772616D20737461727465640D0A00405100403000F0510040100073
:4025800000000140001000140140000800400140000A004C014000020050014020000000605200409C04004806004300232D302B2000686C4C0065666745464700303132FD
:4025C0003334353637383941424344454600303132333435363738396162636465660000F8B500BFF8BC08BC9E4670474D0000002D050000F8B500BFF8BC08BC9E467047ED
:402600002900000018260000C880FF1FD831000060010000000000000000000000B4FF1F7F800000000400000000E02EC05D00001800000000366E010000000000000B0893
:402640003333F33F0000803F000000000000000000000000000000000000000000000000000000000000000000000000000000000000000000000000000000000000000003
:40268000000000000000000000000000000000000000000000000000000000000000000000000000000000000000000000000000000000000000000000000000000000001A
:4026C00000000000000000000000000000000000000000000000000000000000000000000000000000000000000000000000000000000000000000000000000000000000DA
:402700000000000000000000000000000000000000000000000000000000000000000000000000000000000000000000000000000000000000000000000000000000000099
:402740000000000000000000000000000000000000000000000000000000000000000000000000000000000000000000000000000000000000000000000000000000000059
:402780000000000000000000000000000000000000000000000000000000000000000000000000000000000000000000000000000000000000000000000000000000000019
:4027C00000000000000000000000000000000000000000000000000000000000000000000000000000000000000000000000000000000000000000000000000000000000D9
:402800000000000000000000000000000000000000000000000000000000000000000000000000000000000000000000000000000000000000000000000000000000000098
:402840000000000000000000000000000000000000000000000000000000000000000000000000000000000000000000000000000000000000000000000000000000000058
:402880000000000000000000000000000000000000000000000000000000000000000000000000000000000000000000000000000000000000000000000000000000000018
:4028C00000000000000000000000000000000000000000000000000000000000000000000000000000000000000000000000000000000000000000000000000000000000D8
:402900000000000000000000000000000000000000000000000000000000000000000000000000000000000000000000000000000000000000000000000000000000000097
:402940000000000000000000000000000000000000000000000000000000000000000000000000000000000000000000000000000000000000000000000000000000000057
:402980000000000000000000000000000000000000000000000000000000000000000000000000000000000000000000000000000000000000000000000000000000000017
:4029C00000000000000000000000000000000000000000000000000000000000000000000000000000000000000000000000000000000000000000000000000000000000D7
:402A00000000000000000000000000000000000000000000000000000000000000000000000000000000000000000000000000000000000000000000000000000000000096
:402A40000000000000000000000000000000000000000000000000000000000000000000000000000000000000000000000000000000000000000000000000000000000056
:402A80000000000000000000000000000000000000000000000000000000000000000000000000000000000000000000000000000000000000000000000000000000000016
:402AC00000000000000000000000000000000000000000000000000000000000000000000000000000000000000000000000000000000000000000000000000000000000D6
:402B00000000000000000000000000000000000000000000000000000000000000000000000000000000000000000000000000000000000000000000000000000000000095
:402B40000000000000000000000000000000000000000000000000000000000000000000000000000000000000000000000000000000000000000000000000000000000055
:402B80000000000000000000000000000000000000000000000000000000000000000000000000000000000000000000000000000000000000000000000000000000000015
:402BC00000000000000000000000000000000000000000000000000000000000000000000000000000000000000000000000000000000000000000000000000000000000D5
:402C00000000000000000000000000000000000000000000000000000000000000000000000000000000000000000000000000000000000000000000000000000000000094
:402C40000000000000000000000000000000000000000000000000000000000000000000000000000000000000000000000000000000000000000000000000000000000054
:402C80000000000000000000000000000000000000000000000000000000000000000000000000000000000000000000000000000000000000000000000000000000000014
:402CC00000000000000000000000000000000000000000000000000000000000000000000000000000000000000000000000000000000000000000000000000000000000D4
:402D00000000000000000000000000000000000000000000000000000000000000000000000000000000000000000000000000000000000000000000000000000000000093
:402D40000000000000000000000000000000000000000000000000000000000000000000000000000000000000000000000000000000000000000000000000000000000053
:402D80000000000000000000000000000000000000000000000000000000000000000000000000000000000000000000000000000000000000000000000000000000000013
:402DC00000000000000000000000000000000000000000000000000000000000000000000000000000000000000000000000000000000000000000000000000000000000D3
:402E00000000000000000000000000000000000000000000000000000000000000000000000000000000000000000000000000000000000000000000000000000000000092
:402E40000000000000000000000000000000000000000000000000000000000000000000000000000000000000000000000000000000000000000B083333F33F0000803FE8
:402E80000000000000000000000000000000000000000000000000000000000000000000000000000000000000000000000000000000000000000000000000000000000012
:402EC00000000000000000000000000000000000000000000000000000000000000000000000000000000000000000000000000000000000000000000000000000000000D2
:402F00000000000000000000000000000000000000000000000000000000000000000000000000000000000000000000000000000000000000000000000000000000000091
:402F40000000000000000000000000000000000000000000000000000000000000000000000000000000000000000000000000000000000000000000000000000000000051
:402F80000000000000000000000000000000000000000000000000000000000000000000000000000000000000000000000000000000000000000000000000000000000011
:402FC00000000000000000000000000000000000000000000000000000000000000000000000000000000000000000000000000000000000000000000000000000000000D1
:403000000000000000000000000000000000000000000000000000000000000000000000000000000000000000000000000000000000000000000000000000000000000090
:403040000000000000000000000000000000000000000000000000000000000000000000000000000000000000000000000000000000000000000000000000000000000050
:403080000000000000000000000000000000000000000000000000000000000000000000000000000000000000000000000000000000000000000000000000000000000010
:4030C00000000000000000000000000000000000000000000000000000000000000000000000000000000000000000000000000000000000000000000000000000000000D0
:40310000000000000000000000000000000000000000000000000000000000000000000000000000000000000000000000000000000000000000000000000000000000008F
:40314000000000000000000000000000000000000000000000000000000000000000000000000000000000000000000000000000000000000000000000000000000000004F
:40318000000000000000000000000000000000000000000000000000000000000000000000000000000000000000000000000000000000000000000000000000000000000F
:4031C00000000000000000000000000000000000000000000000000000000000000000000000000000000000000000000000000000000000000000000000000000000000CF
:40320000000000000000000000000000000000000000000000000000000000000000000000000000000000000000000000000000000000000000000000000000000000008E
:40324000000000000000000000000000000000000000000000000000000000000000000000000000000000000000000000000000000000000000000000000000000000004E
:40328000000000000000000000000000000000000000000000000000000000000000000000000000000000000000000000000000000000000000000000000000000000000E
:4032C00000000000000000000000000000000000000000000000000000000000000000000000000000000000000000000000000000000000000000000000000000000000CE
:40330000000000000000000000000000000000000000000000000000000000000000000000000000000000000000000000000000000000000000000000000000000000008D
:40334000000000000000000000000000000000000000000000000000000000000000000000000000000000000000000000000000000000000000000000000000000000004D
:40338000000000000000000000000000000000000000000000000000000000000000000000000000000000000000000000000000000000000000000000000000000000000D
:4033C00000000000000000000000000000000000000000000000000000000000000000000000000000000000000000000000000000000000000000000000000000000000CD
:40340000000000000000000000000000000000000000000000000000000000000000000000000000000000000000000000000000000000000000000000000000000000008C
:40344000000000000000000000000000000000000000000000000000000000000000000000000000000000000000000000000000000000000000000000000000000000004C
:40348000000000000000000000000000000000000000000000000000000000000000000000000000000000000000000000000000000000000000000000000000000000000C
:4034C00000000000000000000000000000000000000000000000000000000000000000000000000000000000000000000000000000000000000000000000000000000000CC
:40350000000000000000000000000000000000000000000000000000000000000000000000000000000000000000000000000000000000000000000000000000000000008B
:40354000000000000000000000000000000000000000000000000000000000000000000000000000000000000000000000000000000000000000000000000000000000004B
:40358000000000000000000000000000000000000000000000000000000000000000000000000000000000000000000000000000000000000000000000000000000000000B
:4035C00000000000000000000000000000000000000000000000000000000000000000000000000000000000000000000000000000000000000000000000000000000000CB
:40360000000000000000000000000000000000000000000000000000000000000000000000000000000000000000000000000000000000000000000000000000000000008A
:40364000000000000000000000000000000000000000000000000000000000000000000000000000000000000000000000000000000000000000000000000000000000004A
:40368000000000000000000000000000000000000000000000000000000000000000000000000000000000000000000000000B083333F33F0000803F0000000000000000A0
:4036C00000000000000000000000000000000000000000000000000000000000000000000000000000000000000000000000000000000000000000000000000000000000CA
:403700000000000000000000000000000000000000000000000000000000000000000000000000000000000000000000000000000000000000000000000000000000000089
:403740000000000000000000000000000000000000000000000000000000000000000000000000000000000000000000000000000000000000000000000000000000000049
:403780000000000000000000000000000000000000000000000000000000000000000000000000000000000000000000000000000000000000000000000000000000000009
:4037C00000000000000000000000000000000000000000000000000000000000000000000000000000000000000000000000000000000000000000000000000000000000C9
:403800000000000000000000000000000000000000000000000000000000000000000000000000000000000000000000000000000000000000000000000000000000000088
:403840000000000000000000000000000000000000000000000000000000000000000000000000000000000000000000000000000000000000000000000000000000000048
:403880000000000000000000000000000000000000000000000000000000000000000000000000000000000000000000000000000000000000000000000000000000000008
:4038C00000000000000000000000000000000000000000000000000000000000000000000000000000000000000000000000000000000000000000000000000000000000C8
:403900000000000000000000000000000000000000000000000000000000000000000000000000000000000000000000000000000000000000000000000000000000000087
:403940000000000000000000000000000000000000000000000000000000000000000000000000000000000000000000000000000000000000000000000000000000000047
:403980000000000000000000000000000000000000000000000000000000000000000000000000000000000000000000000000000000000000000000000000000000000007
:4039C00000000000000000000000000000000000000000000000000000000000000000000000000000000000000000000000000000000000000000000000000000000000C7
:403A00000000000000000000000000000000000000000000000000000000000000000000000000000000000000000000000000000000000000000000000000000000000086
:403A40000000000000000000000000000000000000000000000000000000000000000000000000000000000000000000000000000000000000000000000000000000000046
:403A80000000000000000000000000000000000000000000000000000000000000000000000000000000000000000000000000000000000000000000000000000000000006
:403AC00000000000000000000000000000000000000000000000000000000000000000000000000000000000000000000000000000000000000000000000000000000000C6
:403B00000000000000000000000000000000000000000000000000000000000000000000000000000000000000000000000000000000000000000000000000000000000085
:403B40000000000000000000000000000000000000000000000000000000000000000000000000000000000000000000000000000000000000000000000000000000000045
:403B80000000000000000000000000000000000000000000000000000000000000000000000000000000000000000000000000000000000000000000000000000000000005
:403BC00000000000000000000000000000000000000000000000000000000000000000000000000000000000000000000000000000000000000000000000000000000000C5
:403C00000000000000000000000000000000000000000000000000000000000000000000000000000000000000000000000000000000000000000000000000000000000084
:403C40000000000000000000000000000000000000000000000000000000000000000000000000000000000000000000000000000000000000000000000000000000000044
:403C80000000000000000000000000000000000000000000000000000000000000000000000000000000000000000000000000000000000000000000000000000000000004
:403CC00000000000000000000000000000000000000000000000000000000000000000000000000000000000000000000000000000000000000000000000000000000000C4
:403D00000000000000000000000000000000000000000000000000000000000000000000000000000000000000000000000000000000000000000000000000000000000083
:403D40000000000000000000000000000000000000000000000000000000000000000000000000000000000000000000000000000000000000000000000000000000000043
:403D80000000000000000000000000000000000000000000000000000000000000000000000000000000000000000000000000000000000000000000000000000000000003
:403DC00000000000000000000000000000000000000000000000000000000000000000000000000000000000000000000000000000000000000000000000000000000000C3
:403E00000000000000000000000000000000000000000000000000000000000000000000000000000000000000000000000000000000000000000000000000000000000082
:403E40000000000000000000000000000000000000000000000000000000000000000000000000000000000000000000000000000000000000000000000000000000000042
:403E80000000000000000000000000000000000000000000000000000000000000000000000000000000000000000000000000000000000000000000000000000000000002
:403EC00000000000000000000000000000000000000000000000000000000000000000000000000000000B083333F33F0000803F0000000000000000000000000000000058
:403F00000000000000000000000000000000000000000000000000000000000000000000000000000000000000000000000000000000000000000000000000000000000081
:403F40000000000000000000000000000000000000000000000000000000000000000000000000000000000000000000000000000000000000000000000000000000000041
:403F80000000000000000000000000000000000000000000000000000000000000000000000000000000000000000000000000000000000000000000000000000000000001
:403FC00000000000000000000000000000000000000000000000000000000000000000000000000000000000000000000000000000000000000000000000000000000000C1
:404000000000000000000000000000000000000000000000000000000000000000000000000000000000000000000000000000000000000000000000000000000000000080
:404040000000000000000000000000000000000000000000000000000000000000000000000000000000000000000000000000000000000000000000000000000000000040
:404080000000000000000000000000000000000000000000000000000000000000000000000000000000000000000000000000000000000000000000000000000000000000
:4040C00000000000000000000000000000000000000000000000000000000000000000000000000000000000000000000000000000000000000000000000000000000000C0
:40410000000000000000000000000000000000000000000000000000000000000000000000000000000000000000000000000000000000000000000000000000000000007F
:40414000000000000000000000000000000000000000000000000000000000000000000000000000000000000000000000000000000000000000000000000000000000003F
:4041800000000000000000000000000000000000000000000000000000000000000000000000000000000000000000000000000000000000000000000000000000000000FF
:4041C00000000000000000000000000000000000000000000000000000000000000000000000000000000000000000000000000000000000000000000000000000000000BF
:40420000000000000000000000000000000000000000000000000000000000000000000000000000000000000000000000000000000000000000000000000000000000007E
:40424000000000000000000000000000000000000000000000000000000000000000000000000000000000000000000000000000000000000000000000000000000000003E
:4042800000000000000000000000000000000000000000000000000000000000000000000000000000000000000000000000000000000000000000000000000000000000FE
:4042C00000000000000000000000000000000000000000000000000000000000000000000000000000000000000000000000000000000000000000000000000000000000BE
:40430000000000000000000000000000000000000000000000000000000000000000000000000000000000000000000000000000000000000000000000000000000000007D
:40434000000000000000000000000000000000000000000000000000000000000000000000000000000000000000000000000000000000000000000000000000000000003D
:4043800000000000000000000000000000000000000000000000000000000000000000000000000000000000000000000000000000000000000000000000000000000000FD
:4043C00000000000000000000000000000000000000000000000000000000000000000000000000000000000000000000000000000000000000000000000000000000000BD
:40440000000000000000000000000000000000000000000000000000000000000000000000000000000000000000000000000000000000000000000000000000000000007C
:40444000000000000000000000000000000000000000000000000000000000000000000000000000000000000000000000000000000000000000000000000000000000003C
:4044800000000000000000000000000000000000000000000000000000000000000000000000000000000000000000000000000000000000000000000000000000000000FC
:4044C00000000000000000000000000000000000000000000000000000000000000000000000000000000000000000000000000000000000000000000000000000000000BC
:40450000000000000000000000000000000000000000000000000000000000000000000000000000000000000000000000000000000000000000000000000000000000007B
:40454000000000000000000000000000000000000000000000000000000000000000000000000000000000000000000000000000000000000000000000000000000000003B
:4045800000000000000000000000000000000000000000000000000000000000000000000000000000000000000000000000000000000000000000000000000000000000FB
:4045C00000000000000000000000000000000000000000000000000000000000000000000000000000000000000000000000000000000000000000000000000000000000BB
:40460000000000000000000000000000000000000000000000000000000000000000000000000000000000000000000000000000000000000000000000000000000000007A
:40464000000000000000000000000000000000000000000000000000000000000000000000000000000000000000000000000000000000000000000000000000000000003A
:4046800000000000000000000000000000000000000000000000000000000000000000000000000000000000000000000000000000000000000000000000000000000000FA
:4046C00000000000000000000000000000000000000000000000000000000000000000000000000000000000000000000000000000000000000000000000000000000000BA
:404700000000000000000000000000000000000000000000000000000000000000000B083333F33F0000803F0000000000000000000000000000000000000000000000000F
:404740000000000000000000000000000000000000000000000000000000000000000000000000000000000000000000000000000000000000000000000000000000000039
:4047800000000000000000000000000000000000000000000000000000000000000000000000000000000000000000000000000000000000000000000000000000000000F9
:4047C00000000000000000000000000000000000000000000000000000000000000000000000000000000000000000000000000000000000000000000000000000000000B9
:404800000000000000000000000000000000000000000000000000000000000000000000000000000000000000000000000000000000000000000000000000000000000078
:404840000000000000000000000000000000000000000000000000000000000000000000000000000000000000000000000000000000000000000000000000000000000038
:4048800000000000000000000000000000000000000000000000000000000000000000000000000000000000000000000000000000000000000000000000000000000000F8
:4048C00000000000000000000000000000000000000000000000000000000000000000000000000000000000000000000000000000000000000000000000000000000000B8
:404900000000000000000000000000000000000000000000000000000000000000000000000000000000000000000000000000000000000000000000000000000000000077
:404940000000000000000000000000000000000000000000000000000000000000000000000000000000000000000000000000000000000000000000000000000000000037
:4049800000000000000000000000000000000000000000000000000000000000000000000000000000000000000000000000000000000000000000000000000000000000F7
:4049C00000000000000000000000000000000000000000000000000000000000000000000000000000000000000000000000000000000000000000000000000000000000B7
:404A00000000000000000000000000000000000000000000000000000000000000000000000000000000000000000000000000000000000000000000000000000000000076
:404A40000000000000000000000000000000000000000000000000000000000000000000000000000000000000000000000000000000000000000000000000000000000036
:404A800000000000000000000000000000000000000000000000000000000000000000000000000000000000000000000000000000000000000000000000000000000000F6
:404AC00000000000000000000000000000000000000000000000000000000000000000000000000000000000000000000000000000000000000000000000000000000000B6
:404B00000000000000000000000000000000000000000000000000000000000000000000000000000000000000000000000000000000000000000000000000000000000075
:404B40000000000000000000000000000000000000000000000000000000000000000000000000000000000000000000000000000000000000000000000000000000000035
:404B800000000000000000000000000000000000000000000000000000000000000000000000000000000000000000000000000000000000000000000000000000000000F5
:404BC00000000000000000000000000000000000000000000000000000000000000000000000000000000000000000000000000000000000000000000000000000000000B5
:404C00000000000000000000000000000000000000000000000000000000000000000000000000000000000000000000000000000000000000000000000000000000000074
:404C40000000000000000000000000000000000000000000000000000000000000000000000000000000000000000000000000000000000000000000000000000000000034
:404C800000000000000000000000000000000000000000000000000000000000000000000000000000000000000000000000000000000000000000000000000000000000F4
:404CC00000000000000000000000000000000000000000000000000000000000000000000000000000000000000000000000000000000000000000000000000000000000B4
:404D00000000000000000000000000000000000000000000000000000000000000000000000000000000000000000000000000000000000000000000000000000000000073
:404D40000000000000000000000000000000000000000000000000000000000000000000000000000000000000000000000000000000000000000000000000000000000033
:404D800000000000000000000000000000000000000000000000000000000000000000000000000000000000000000000000000000000000000000000000000000000000F3
:404DC00000000000000000000000000000000000000000000000000000000000000000000000000000000000000000000000000000000000000000000000000000000000B3
:404E00000000000000000000000000000000000000000000000000000000000000000000000000000000000000000000000000000000000000000000000000000000000072
:404E40000000000000000000000000000000000000000000000000000000000000000000000000000000000000000000000000000000000000000000000000000000000032
:404E800000000000000000000000000000000000000000000000000000000000000000000000000000000000000000000000000000000000000000000000000000000000F2
:404EC00000000000000000000000000000000000000000000000000000000000000000000000000000000000000000000000000000000000000000000000000000000000B2
:404F00000000000000000000000000000000000000000000000000000000000000000000000000000000000000000000000000000000000000000000000000000000000071
:404F4000000000000000000000000000000000000000000000000B083333F33F0000803F0000000000000000000000000000000000000000000000000000000000000000C7
:404F800000000000000000000000000000000000000000000000000000000000000000000000000000000000000000000000000000000000000000000000000000000000F1
:404FC00000000000000000000000000000000000000000000000000000000000000000000000000000000000000000000000000000000000000000000000000000000000B1
:405000000000000000000000000000000000000000000000000000000000000000000000000000000000000000000000000000000000000000000000000000000000000070
:405040000000000000000000000000000000000000000000000000000000000000000000000000000000000000000000000000000000000000000000000000000000000030
:4050800000000000000000000000000000000000000000000000000000000000000000000000000000000000000000000000000000000000000000000000000000000000F0
:4050C00000000000000000000000000000000000000000000000000000000000000000000000000000000000000000000000000000000000000000000000000000000000B0
:40510000000000000000000000000000000000000000000000000000000000000000000000000000000000000000000000000000000000000000000000000000000000006F
:40514000000000000000000000000000000000000000000000000000000000000000000000000000000000000000000000000000000000000000000000000000000000002F
:4051800000000000000000000000000000000000000000000000000000000000000000000000000000000000000000000000000000000000000000000000000000000000EF
:4051C00000000000000000000000000000000000000000000000000000000000000000000000000000000000000000000000000000000000000000000000000000000000AF
:40520000000000000000000000000000000000000000000000000000000000000000000000000000000000000000000000000000000000000000000000000000000000006E
:40524000000000000000000000000000000000000000000000000000000000000000000000000000000000000000000000000000000000000000000000000000000000002E
:4052800000000000000000000000000000000000000000000000000000000000000000000000000000000000000000000000000000000000000000000000000000000000EE
:4052C00000000000000000000000000000000000000000000000000000000000000000000000000000000000000000000000000000000000000000000000000000000000AE
:40530000000000000000000000000000000000000000000000000000000000000000000000000000000000000000000000000000000000000000000000000000000000006D
:40534000000000000000000000000000000000000000000000000000000000000000000000000000000000000000000000000000000000000000000000000000000000002D
:4053800000000000000000000000000000000000000000000000000000000000000000000000000000000000000000000000000000000000000000000000000000000000ED
:4053C00000000000000000000000000000000000000000000000000000000000000000000000000000000000000000000000000000000000000000000000000000000000AD
:40540000000000000000000000000000000000000000000000000000000000000000000000000000000000000000000000000000000000000000000000000000000000006C
:40544000000000000000000000000000000000000000000000000000000000000000000000000000000000000000000000000000000000000000000000000000000000002C
:4054800000000000000000000000000000000000000000000000000000000000000000000000000000000000000000000000000000000000000000000000000000000000EC
:4054C00000000000000000000000000000000000000000000000000000000000000000000000000000000000000000000000000000000000000000000000000000000000AC
:40550000000000000000000000000000000000000000000000000000000000000000000000000000000000000000000000000000000000000000000000000000000000006B
:40554000000000000000000000000000000000000000000000000000000000000000000000000000000000000000000000000000000000000000000000000000000000002B
:4055800000000000000000000000000000000000000000000000000000000000000000000000000000000000000000000000000000000000000000000000000000000000EB
:4055C00000000000000000000000000000000000000000000000000000000000000000000000000000000000000000000000000000000000000000000000000000000000AB
:40560000000000000000000000000000000000000000000000000000000000000000000000000000000000000000000000000000000000000000000000000000000000006A
:40564000000000000000000000000000000000000000000000000000000000000000000000000000000000000000000000000000000000000000000000000000000000002A
:4056800000000000000000000000000000000000000000000000000000000000000000000000000000000000000000000000000000000000000000000000000000000000EA
:4056C00000000000000000000000000000000000000000000000000000000000000000000000000000000000000000000000000000000000000000000000000000000000AA
:405700000000000000000000000000000000000000000000000000000000000000000000000000000000000000000000000000000000000000000000000000000000000069
:405740000000000000000000000000000000000000000000000000000000000000000000000000000000000000000000000000000000000000000000000000000000000029
:405780000000000000000000FF0100000000000000000000000000000000000000000000000000000000000000000000AA250000000000000000000000000000000000001A
:4057C00000000000000000000000000000000000000000000000000000000000000000000000000000000000000000003CB2FF1F000000000000000000000000000000009D
:405800000000000000000000000000000000000000000000000000000000000000000000000000000000000000000000000000000000000000000000000000000000000068
:405840000000000000000000000000000000000000000000000000000000000000000000000000000000000000000000000000000000000000000000000000000000000028
:4058800000000000000000000000000000000000000000000000000000000000000000000000000000000000000000000000000000000000000000000000000000000000E8
:4058C00000000000000000000000000000000000000000000000000000000000000000000000000000000000000000000000000000000000000000000000000000000000A8
:020000040003F7
:0200000480007A
:40000000036400400105014002070140050901404F0A0140490B0140510C0140410D0140560E0140380F01400215014003190140061B014002400140034101400C42014002
:400040000743014007440140024501400B460140024701400448014008490140024C0140094D014003500140025101408B728C0F8F38EA03EA04EE019D089F04A401A90198
:40008000AA200004020208020A0C180E1C081E022001240E320E340139803E103F40580459045C015F0180338110820C8401850888038B048C1F8DFF8E2093E3941C95186A
:4000C0009623983F99C09C029D1C9FE1A180A223A404A544A80CA93CABC2AC08ADE7AF18B010B20FB338B51FB62CB7C0BAA8BB20BE01C006C540C9FFCA07CBFFCC40CD20F8
:40010000CEF0CF05D008D602D710D804D904DA04DB04DC11DD11DF01E040E1A8E240E3200012041005580680074009100A010C180E25102012801602172918101B101C4003
:400140001D481E061F0821402401261027102C082D082E81355437013C203E0A3F404E404F1056015C406C346D607504760A7728831088108B408D408F489201931094395E
:4001800095409680974099019B019E019F14A010A2A0A409A508A601A840AF20B012B404C0FAC2E3C4FCCAF0CCF0CEF0D220D610E4010001020A0403050B0803090A0B0173
:4001C0000D041204170B1C021E012410250429042A042D082F03300431023208330834103501360337043E113F154034410542024406460C470E481449FF4AFF4BFF4C6219
:400200004DA04EF04F41500C5401580459045A045B045C115D115F016640670269106A306B106D106E106F12820486198A029411950196089E04A408A611AC18AE01B008CE
:40024000B210B406B501B601BE55BF10D804D904DB04DF010012010A0428050206280A110E010F80102214101610171019011A021B181C201E091F0120042480262027211F
:400280002C022E283304350837043D403E14450C47114D804F60560457405C425D105E0868226A149040911093109401968297029A109D809E05A280A408A504A601A7081C
:4002C000AF08C07EC295C465CA70CC42CE70D0E0D230D6F0EC020120030306030806090C0A010B130E0112021511170E1B0C1D111E051F0626062F083207330F353039207A
:400300003A083B08580459045C115F018120843E8501864089388A018B048D288E5A930195189601972299129A809B209C3E9EC09F06A120A318A4A4A648A830AA48AB0175
:40034000AD01B008B201B301B406B6F0B73EB820B908BA80BE15C014C102C6EBC70CC81CC9FFCAFFCBFFCEF0CF44D00CD418D804D904DA04DB04DC11DD11DF01E6C0EA40C1
:40038000EB02001002010310050406050711080109810A800B300D080E010F0412201518160819041C401D801E011F1420102104222023042508268028012C082D802E01C0
:4003C00031843220350436A138103A013C103D0A3F8045804711561857405C01670A8A01C0E7C2E9C464CAB8CCFECEF5D0B0D680D830E801EC109D089F04A4018801890843
:400400009D08A401AB04EC103380CC101140A780C4404F40500857089B20A008A808A940AB80AF20D220D460EAC0134097409B30AB18C440EA20EE80740478807D20888067
:40044000DC01DE05E004A510AC044508658083408D109980A510B580D001D601E408EC029B40A508251027809B30C8A0732077109B30AB80B510DC80DE20E8809B40A508A6
:400480001040774088409B40B508C408DE04E201EC0800020C020E02000312209C8A0000400000000000000000000A00800040BFBF00BF0000000000000B0B000000000078
:4004C0000078780000000000000000000000010095001801000A00000000000000000000000000000000000000000000000000000000000000000000000000000000000053
:4005000000000000000000000000000000000000000000000000000000000000000000000000000000000000000000000000000000000000000000000000000000000000BB
:40054000000000000000000000000000000000000000000000000000000000000000000000000000000000000000000000000000000000000000000000000000000000007B
:40058000000000000000000000000000000000000000000000000000000000000000000000000000000000000000000000000000000000000000000000000000000000003B
:4005C00000000000000000000000000000000000000000000000000000000000000000000000000000000000000000000000000000000000000000000000000000000000FB
:0200000490006A
:0400000000004005B7
:0200000490105A
:04000000BC90ACAF55
:0200000490303A
:02000000A07DE1
:0200000490402A
:4000000000000000000000000000000000000000000000000000000000000000000000000000000000000000000000000000000000000000000000000000000000000000C0
:400040000000000000000000000000000000000000000000000000000000000000000000000000000000000000000000000000000000000000000000000000000000000080
:400080000000000000000000000000000000000000000000000000000000000000000000000000000000000000000000000000000000000000000000000000000000000040
:4000C0000000000000000000000000000000000000000000000000000000000000000000000000000000000000000000000000000000000000000000000000000000000000
:0200000490501A
:0C00000000012E16106900012E25B0E64C
:00000001FF