:400000000080002011000000A9080000A908000008B5044B1A6803F53F5302331A6000F063FC00BFFA46004010B5054C237833B9044B13B10448AFF300800123237010BDB6
:400040005081FF1F00000000D0190000084B10B51BB108490848AFF300800848036803B910BD074B002BFBD0BDE81040184700BF000000005481FF1FD0190000C880FF1F20
:400080000000000008B500F083FF00F0ADFA08BD08B562B600F002FD0D4800F035FD0D4801F012F800F056F84FF4FA6000F084FC094800F0E1FF3F2000F064F800F07AF8B1
:4000C0004FF47A7000F078FC00F0DCF9F3E700BFD4190000190100008500000008B5712804D0772809D0652814D10DE0032000F0F9F8002000F014F908BD032000F0F2F8A1
:400100000F2000F00DF908BD0F2000F0EBF80F2000F006F908BD00BF38B500F0D3FC044609E000F0C9FC054600F0D8FC2846FFF7D5FF013CE4B2002CF3D138BD002303E098
:40014000FF21034AD1540133FE2BF9DD704700BFCC83FF1F08B500F049FD0122064B1A60FF21064800F0A0FEFF21054800F0B6FEFFF7E4FF08BD00BF00E100E0CC83FF1F5E
:40018000C882FF1F10B50446FFF7D8FF084B1C7000F0C4FE642000F00FFC002000F0FEFB012000F009FC012000F0F8FB10BD00BFCC83FF1F70B584B000F05AFE10F0100F0F
:4001C0006FD000F0A5FE0546002466E0364B1B5D0A3B172B60D8DFE803F00C1014181C5F5F5F5F5F5F5F5F5F5F5F5F5F5F5F5F5F5F20002000F0A8F94EE0012000F0A4F947
:400200004AE0022000F0A0F946E0042000F09CF942E0032000F098F93EE0661C224B9B5D012B1BD1A31C2049CA5C8DF80C20E31CCB5C8DF80D30261D895D8DF80E101B4C1D
:4002400000911B49204600F09FFF1A4B1860039800F034F8204600F057FC1CE0022B1AD1A31C1149CA5C8DF80C20E31CCB5C8DF80D30261D895D8DF80E100C4C00910E4960
:40028000204600F081FF0B4B1860039800F020F8204600F039FC34460134AC4296DB00F043FE04B070BD00BFC882FF1F6C81FF1FE8190000C883FF1F001A000082B0034B16
:4002C0001880000C987002B0704700BFCC80FF1F82B0034B9880000C987102B0704700BFCC80FF1F38B50B4B18700B4B1B78013BDBB2012B0CD80246064C251D074928465A
:4003000000F042FF284600F0FFFB2078FFF73AFF38BD00BFA481FF1FC482FF1F2C1A000008B5054B1B78022B05D1044B83F80401034800F0E9FB08BDC482FF1FA481FF1FCF
:40034000681A000010B584B003901C4B1B787BB99DF80C209DF80D309DF80E10184C00911849204600F010FF204600F0CDFB22E0032B0FD19DF80C209DF80D309DF80E10CC
:400380000F4C00911049204600F0FEFE204600F0BBFB10E0042B0ED19DF80C209DF80D309DF80E10064C00910849204600F0ECFE204600F0A9FB04B010BD00BFC482FF1F44
:4003C000A881FF1F901A0000C01A0000F81A000010B584B0C1F30723C1F30742064C01920093CBB202460549204600F0CDFE204600F08AFB04B010BDA881FF1F301B0000B2
:4004000038B505461B4B1B78012B18D11A4800F07BFB002410E0EB43234113F0010F05D0164B1968E0B2FFF7D3FF04E0134B5968E0B2FFF7CDFF0134072CECDD38BD022B3A
:4004400017D10D4800F060FB002410E0EB43234113F0010F05D00A4B5968E0B2FFF7B8FF04E0074B1968E0B2FFF7B2FF0134072CECDD38BDC482FF1F6C1B0000201A0000D6
:40048000CC80FF1F10B5254B1B78013BDBB2012B38D8234B187893F8053198420DD0204C84F80501FFF7ACFF14F8042B1D49204600F06AFE204600F027FB184B1B78022B06
:4004C0002AD1174B93F804316BB1154AD2F808214AB9154800F018FB00F0A0FD0122104BC3F8082110BDBBB90D4BD3F808319BB10E4800F009FB00F031FD0022084BC3F89E
:40050000082110BD064BD3F808312BB100F026FD0022034BC3F8082110BD00BFC482FF1FA481FF1F841B00009C1B0000B01B000008B5034800F0E8FA024B187808BD00BF9E
:40054000C41B0000A481FF1F08B5042838D8DFE800F0030D17242E001A4B18701A4800F0D3FA1A4B9868FFF7EDFE08BD154B1870FFF7DEFF164B1870164800F0C5FA08BDA3
:40058000104B1870FFF7D4FF114B18700020FFF7F9FD114800F0B8FA08BD0A4B18700F4B1868FFF7CFFE0E4800F0AEFA08BD054B18700A4B5868FFF7C5FE0A4800F0A4FA2C
:4005C00008BD00BFC482FF1FD41B0000201A0000A481FF1FE41B0000F81B0000CC80FF1F0C1C00001C1C000038B5174B1B78022B28D124E02546154B93F80431234113F0CD
:40060000010F19D0114B234493F80C3153B1104B19682046FFF7DCFE0C4B1D44002385F80C3109E00A4B59682046FFF7D1FE074B1D44012385F80C310134E4B200E0002401
:40064000072CD7D938BD00BFC482FF1FA481FF1FCC80FF1FFEE700BFF0B40022174611E050F82760F3B226F0FF0608E001EB420511F812406D78A5550132013BDBB2002B0F
:40068000F4D101371D2FEBD9F0BC7047064B1B78DBB203F00701054A11701B09013213704422034B1A707047CF0100496E5800407658004008B50A46002100F05CFD08BD56
:4006C00038B50E22294B1A801823294A13703321023211800232137045F6BF5102321180023213700222234B1A7008224FF040231A70032103F5007319701F4B1B78DBB2F3
:400700001E490B701E4B1A8041F25122023B1A80002419250CE01B4B1B7803F0010343EA440404F003044FF4F07000F0DDFC013D0DB1032CEFD115B90320FFF78BFF124B84
:400740004FF480721A8007221A7000220F490A704820023108701A700222033B1A700C4A137843F00703137038BD00BF80400040824000400043004008010049A146004027
:4007800022420040254200400440004006400040A243004008B500F0E3FC08BD38B572B6324A137843F00403137000240CE0304D630019194A0011462A440846918828587D
:4007C000FFF778FF0134E4B2082CF0D900240CE02748A20011194B000344B3F84020D96B986BFFF7D7FF0134E4B2012CF0D921494FF09040FFF730FF1F4A204B1A60204AB2
:40080000137843F0020313701032137843F0020313701C4C237843F040032370A2F58632513A137843F0100313700A2216491748FFF7B0FF0A2216491648FFF7ABFF164A38
:40084000137843F008031370144D61232B70FFF737FF81232B700122114B1A70FFF716FF0E2221460F48FFF795FF38BDE84600402C1C000078000048040400C4D802014063
:4008800003500140A0430040C0060048C0510040CC06004810510040224300400048004004000840B043004008B500F02DFC03680C2B00D1FEE7FEE708B5094B1A681044C1
:4008C000084BC31A802B02DC054B186005E000F01BFC0C2303604FF0FF32104608BD00BFD480FF1FE884FF1F08B5104E104D16E029686B68AC68002204E051F8040B43F834
:40090000040B0432A242F8D1E868002203E0002143F8041B04328242F9D11035013E002EE6D100F0F7FBFFF7B3FBFEE701000000D41C000008B5104A104B1A60104A1368AB
:4009400043F40073136000230AE0032B03D80D4A52F8231000E00C490C4A42F8231001332F2BF2D90A4B1A780A4B1A70074A0A4B1A60FFF713FF08BD0004FA050CED00E090
:4009800014ED00E000000000A90800000080FF1FBC760040C080FF1F08ED00E0044A137803F0DF03400100F020001843107070471051004001BE704710B5044605E0084B73
:4009C000186800F091FBA4F50044B4F5004FF6D8034B586800FB04F000F086FB10BD00BFD880FF1F70B504460E46074B1D681F2802D90020FFF7DEFF04F01F04103455F891
:400A0000240045F8246070BD08ED00E038B504460D46072902D90020FFF7CCFF1F2C02D90020FFF7C7FF04F01F0000F1604000F564406D01EDB2057038BD00BF7222084BFD
:400A40001A70202202331A700622A3F5B2731A70472210331A70002254331A70704700BF8465004010B500F047FB04460A4A137843F0200313700232137843F010031370F3
:400A8000A2F58072137843F01003137000F04EF8204600F035FB10BD9465004008B5054B1B7823B9FFF7CAFF0122024B1A70FFF7D9FF08BDB882FF1F014B1878704700BF25
:400AC00044650040044B1B7813F0200F01D0012070470020704700BF66650040024B1B780BB1024B18707047B882FF1F45640040034B1B7813F0040FFAD1024B18707047F8
:400B0000666400404564004038B5074B1B782BB938BDFFF7EDFF0134A4B201E005460024285D0028F5D138BDB882FF1F054A137843F0020313701032137843F0020313707D
:400B4000704700BFA243004038B50024144B1C70012503F588731D7000F0CEFA114A137843F01003137000F0CBFA07220E4B1A700E4B1D6029462046FFF748FF0C4920466D
:400B8000FFF730FF10220B4B1A700B4B1C700B4B1C700B4B1C70112000F07EF938BD00BF77640040976500408364004080E100E0150C0000CC84FF1FD184FF1FD084FF1FD9
:400BC000D284FF1F08B500F097FA064A137843F02003137000F094FA034A137843F00103137008BD936400407764004008B5074B1B7823B9FFF7A8FF0122044B1A70FFF75B
:400C0000E1FF0122024B1A6008BD00BFBA82FF1F00E100E008B5894B1B78DAB2884B1B7813F0400F40F00881854B1B7813F0100F00F0FF8012F0200F03D102F00903092BFF
:400C400015D17F4B1B78DBB2112B10D17D490B7803F0DF030B707C4B197801F0DF011970197841F0100119701021754B197012F0010F00F0E18012F0080F53D0734B1B7876
:400C800013F0010F37D0724B1A78D2B2714B1B78DBB29A421BD26E4A1378DBB26E490968CB5CDBB269490B7005216C4B1970FF21633B197000214033197013780133DBB2B3
:400CC0001370614A137843F0020313700FE0FF235E4A1370052173321170633A137000225F4B1A70584A137843F0060313701222534B1A7008BD0122584B1A70FF22633B66
:400D00001A70002240331A7011224D4B1A704E4A137843F0200313704A4A137843F02003137008BD464B1B78DBB2112B2DD14D4B1A78D2B24C4B1B78DBB29A4216D2434B5A
:400D40001978C9B2012273331A70FF22633B1A70002240331A70434A1378DBB243480068C15413780133DBB2137008BD11223B4B1A70FF22633B1A70002240331A70324A44
:400D8000137843F04003137008BD2D4B1B78DBB2122B4AD112F0020F2FD12D4B1A78D2B22C4B1B78DBB29A4216D2294A1378DBB229490968CB5CDBB224490B700521274B5C
:400DC0001970FF21633B197000214033197013780133DBB2137008BDFF231C4A1370052173321170633A137000221D4B1A70164A137843F00403137008BDFF23134A137078
:400E0000152173321170633A13700022144B1A700D4B1A7802F0FD021A701A7842F001021A701022064B1A7008BD0020FFF7C2FD08BD1022024B1A7008BD00BF6765004070
:400E4000CC84FF1F87650040D184FF1F04640040D084FF1FD384FF1FDC84FF1F7764004054640040D284FF1FD484FF1FD884FF1F0121064B1960064B18781A7802F02F025F
:400E80001A70044B196000F0F000704780E100E0D184FF1F00E100E000F07F00014B1870704700BF24640040024658B101230648036006480260064A11700021054A1170BB
:400EC000054A1360704700BF80E100E0DC84FF1FD384FF1FD084FF1F00E100E0024658B101230648036006480260064A11700021054A1170054A1360704700BF80E100E042
:400F0000D884FF1FD484FF1FD284FF1F00E100E0014B1878704700BFD284FF1F0022014B1A707047D084FF1F0022014B1A707047D284FF1F084A137843F0010313701032A9
:400F4000137843F00103137002F64D32137843F001031370704700BFA3430040084A137803F0FE031370A2F65D32137803F0FE0313701032137803F0FE031370704700BF9D
:400F8000004F0040014B1870704700BF034F0040014B1878704700BF034F0040014B1880704700BF044F0040014B1880704700BF064F004008B5164A137803F001031370E4
:400FC0000232137803F0FC031370124B1A7802F0CF021A701A7842F030021A701A7802F0F0021A701A7842F00F021A700A4A137843F00103137040F2E730FFF7CFFF40F2CA
:40100000E730FFF7D1FF0820FFF7BCFF08BD00BF004F00400B4F0040014F004008B5054B1B7823B9FFF7C6FF0122024B1A70FFF781FF08BDBB82FF1F024B1B68C3F88400E7
:40104000704700BF08ED00E04001C0B2014B1870704700BF11E400E04FF40032014B1A60704700BF00E100E04FF40032014B1A60704700BF80E100E010B50446FFF7F4FFF7
:401080002046FFF7D9FF0720FFF7DEFFFFF7E4FF10BD00BF014B1B685864704708ED00E04001C0B2014B1870704700BF01E400E00222014B1A60704700E100E00222014BF2
:4010C0001A60704780E100E010B50446FFF7F6FF2046FFF7DFFF0720FFF7E2FFFFF7E8FF10BD00BF000000000230800803D000BF01380046FCD17047EFF3108072B6704743
:4011000080F31088704700BF014B1868704700BF4881FF1F0E4B70B51E460E4C0025E41AA410A54204D056F8253098470135F8E700F0BEFD084B094C1E46E41AA410002512
:40114000A54204D056F8253098470135F8E770BDBC1C0000BC1C0000BC1C0000C41C000010B5431E0A44914204D011F8014B03F8014FF8E710BD03460244934202D003F8F0
:40118000011BFAE7704700000EB400B54FF402719CB0ADF814106FF00041049107914FF6FF711DAB02900690084853F8042BADF81610006802A9019300F064F8029B002280
:4011C0001A701CB05DF804EB03B070474881FF1F2DE9F0478E6882469E420C46914698463ED88A8912F4906F3AD02568096902236F1A656905EB450595FBF3F57B1C43448F
:401200009D4238BF1D4653050FD5294600F040FB064698B13A462169FFF7A2FFA38923F4906343F08003A38113E02A4600F08EFB064670B92169504600F0DEFA0C23CAF82F
:401240000030A3894FF0FF3043F04003A381BDE8F08726613E44266046466561ED1BA560464528BF464649463246206800F0A8FAA36800209B1BA36023681E442660BDE8E5
:40128000F08700002DE9F04F9DB003938B8980461C060D4616460DD50B695BB9402100F0F7FA2860286118B90C23C8F80030CDE040236B610023099320238DF82930DFF894
:4012C0009CB130238DF82A3037463C4614F8013B1BB9B7EB060910D003E0252BF9D02746F3E74B46324629464046FFF771FF013000F0A780099B4B4409933B78002B00F037
:40130000A08000234FF0FF3204930793059206938DF853301A930126052221784E4800F041FA671C049B38B14B4A3C46801A06FA00F018430490EFE7D90644BF20228DF822
:4013400053201A0744BF2B228DF8532022782A2A03D0079A00210A200BE0039A111D12680391002A10DA524243F00200079204900BE027463B780134303B092B03D800FB61
:4013800002320121F5E701B107923B782E2B1ED17B782A2B0AD1039B02371A1D1B680392002BB8BF4FF0FF33059310E0002319460593781C0A2407463A780130303A092A28
:4013C00003D804FB01210123F5E703B1059103223978224800F0E6F940B14023CBEB000003FA00F0049B013718430490397806221B487E1C8DF8281000F0D4F988B1194BEE
:4014000033B9039B073323F007030833039314E003AB00932A46144B04A94046AFF3008007E003AB00932A460F4B04A9404600F093F8B0F1FF3F824603D0099B53440993B0
:4014400042E7AB895B0601D4099801E04FF0FF301DB0BDE8F08F00BF7A1C0000801C0000841C000000000000D11100002DE9F04791461F460A698B6806469342B8BF1346A5
:40148000C9F8003091F843200C46DDF8208012B10133C9F800302368990642BFD9F800300233C9F80030256815F0060510D104F1190A07E00123524639463046C0470130E8
:4014C0001AD00135E368D9F800209B1A9D42F1DB94F843302268003318BF012392060FD5E118302081F843005A1C94F845102244023382F8431003E04FF0FF30BDE8F087CC
:4015000004F1430239463046C0470130F4D02268D9F80050E36802F00602042A08BF5D1B2269A3680CBF25EAE57500259342C4BF9B1AED184FF000091A344D4509D00123FD
:40154000224639463046C0470130D5D009F10109F3E70020BDE8F0872DE9F04317460A7E85B06E2A984606460C460C9B01F1430E00F0AE8011D8632A22D009D8002A00F035
:40158000BB80582A40F0CA8081F84520834955E0642A1ED0692A1CD0C0E0732A00F0B08009D86F2A2ED0702A40F0B8800A6842F020020A603EE0752A24D0782A3AD0ADE029
:4015C0001A6801F14205111D1960136884F84230A8E021681A6811F0800F02D0111D196008E011F0400F02F10401196002D0B2F9003000E01368002B3CDA2D225B4284F82A
:40160000432037E021681A6811F0800F02D0111D196007E011F0400F02F10401196001D0138800E01368227E5C496F2A14BF0A2208221BE078225A4984F845202268186883
:4016400012F0800F00F104051D6003D1550601D5038800E00368D00744BF42F0200222601BB9226822F0200222601022002084F8430001E049490A226568002DA56008DB31
:40168000206820F0040020602BB9002D7DD175460CE0002B79D07546B3FBF2F002FB1033CB5C05F8013D03460028F5D1082A0BD12368DA0708D5236962689A42DEBF3023F7
:4016C00005F8013C05F1FF35C5EB0E0323612EE008681A6810F0800F496903D0101D1860136808E010F0400F02F104001860136801D0198000E0196000232361754616E0D1
:401700001A68111D1960156800216268284600F049F808B1401B6060636804E004F1420584F8422001232361002384F84330CDF800803B4603AA21463046FFF797FE013016
:4017400002D14FF0FF3026E023692A4639463046C0470130F5D023689B0710D5002504F1190907E001234A4639463046C0470130E7D00135E368039A9B1A9D42F2DBE068A0
:40178000039B9842B8BF184605E00B7804F1420584F842308AE705B0BDE8F0838B1C00009C1C000010B5C9B202449042034605D01C7801308C42F8D1184610BD002010BDC3
:4017C000884210B501EB020301D8421E0BE09842FBD28118D21AD34204D013F8014D01F8014DF8E710BD994204D011F8014B02F8014FF8E710BD000038B50546002944D075
:4018000051F8043C0C1F002BB8BFE41800F0D4F81E4A1368114613B96360146030E0A3420DD92268A018834201BF18685B681218226063600C6023E0A24203D813465A68C0
:40184000002AF9D118681918A1420BD12168014458188242196013D110685268014419605A600DE002D90C232B6009E021686018824201BF106852680918216062605C60B9
:401880002846BDE8384000F098B838BDC082FF1F70B5CD1C25F0030508350C2D38BF0C25002D064601DBA94202D90C23336046E000F082F8234B1C681A462146A1B10B6854
:4018C0005B1B0ED40B2B03D90B60CC18CD501EE08C420BBF63684B681360636018BF0C4615E00C464968E9E7174C23681BB9304600F052F820602946304600F04DF8431C6C
:4019000018D0C41C24F00304A0420DD12560304600F053F804F10B00231D20F00700C31A0ED05A42E25070BD211A304600F034F80130EBD10C233360304600F03EF8002089
:4019400070BD00BFC082FF1FBC82FF1FF8B5074615460E4621B91146BDE8F840FFF798BF1AB9FFF749FF2846F8BD00F027F885420ED929463846FFF78BFF044650B131469B
:401980002A46FFF7EDFB31463846FFF735FF01E03046F8BD2046F8BD38B5064C0023054608462360FEF788FF431C02D1236803B12B6038BDE084FF1F7047704751F8040C5F
:4019C0000028BEBF091851F8043CC018043870470000000050726F6772616D20737461727465640A0D0000004567656E2066617276653A202564256425640A0D0000000008
:401A00004D6F647374616E64657273206661727665723A202564256425640A0D00000000FF0000000000FF000000000053656E64696E67206375707374617475732E2055FB
:401A400070646174696E67206375707374617475732077697468206375707374617475733A25780A0D00000053656E64696E67204869747374617475732E205570646174A0
:401A8000696E67204869747374617475730A0D007475726E6564206F666620636F6C6F72733A205265643A256420477265656E3A256420426C75653A25640A0D00000000BB
:401AC00057696E6E696E67206C6967687473207769746820636F6C6F72733A205265643A256420477265656E3A256420426C75653A25640A0D0000004C6F73696E67206C4D
:401B00006967687473207769746820636F6C6F72733A205265643A256420477265656E3A256420426C75653A25640A0D000000006C6967687420666F7220696E6465782093
:401B40002564207769746820636F6C6F723A205265643A256420477265656E3A256420426C75653A25640A0D00000000436F6E74726F6C6C696E67206C69676874730A0DE6
:401B800000000000437570737461747573206368616E67653A25640A0D0000005374617274696E672074696D65720A0D0000000053746F7070696E672074696D65720A0DA9
:401BC00000000000676574206375707374617475730A0D0053746174653D3D49444C450A0D00000053746174653D3D5354415254494E470A0D00000053746174653D3D5009
:401C00004C4159494E470A0D0000000073746174653D3D574F4E0A0D0000000073746174653D3D4C4F53540A0D000000004F00400C00005100401000205100405000F051B1
:401C40000040100000000140001080140140800700400140000A004C01400002005001402000000060520040380600480600001401404006004880004300232D302B2000AD
:401C8000686C4C006566674546470030313233343536373839414243444546003031323334353637383961626364656600000000F8B500BFF8BC08BC9E4670474D00000030
:401CC00035090000F8B500BFF8BC08BC9E46704729000000E81C0000C880FF1F8800000098030000000000000000000000FFFF00FF00FF00E884FF1F0000E02EC05D0000C0
:401D00001800000000366E010000000000000000000000000000000000000000000000000000000000000000781C0000000000000000000000000000000000000000000052
:401D400000000000000000000000000000000000000000000000000000000000000000000000000000000000E880FF1F0000000000000000000000000000000000000000DD
:401D80000000000000000000000000000000000000000000000000000000000000000000000000000000000000000000000000000000000000000000000000000000000023
:401DC00000000000000000000000000000000000000000000000000000000000000000000000000000000000000000000000000000000000000000000000000000000000E3
:401E000000000000000000000000000000000000000000000000000000000000000000000000000000000000000000000000000000000000000000000000000000000000A2
:401E40000000000000000000000000000000000000000000000000000000000000000000000000000000000000000000000000000000000000000000000000000000000062
:020000040003F7
:0200000480007A
:40000000024F0040036400400265004052020140320301406104014045050140440601404707014002090140040A0140010B0140101401403A150140521601404A17014063
:40004000011B014003400140024101400A4201400743014002440140014501400146014002470140054801400A490140044D0140055001400251014001200A4B24048307DD
:40008000860F84728638032004020502070C14031505173819701A011B0D1F70240329052B583103333C34033568382039023B283E104002474049FF4A074BFF4C404D20A1
:4000C0004EF04F055008580459045A045C105D015F01604061A86240632081038217840285038610880789028A608C758D0390129103924594049503980599039A329E08C9
:400100009F01A201A303A405A704A805A903AC05AF03B107B270B40FBA20BB02D602D728D804D904DB04DE08DF0102410328071008010A440B110D100E100F0410A811400E
:40014000170819301A041B081D202201242825042758284129042B082E10308831103201375839493A013B103E023F0445204F0456026320682869486A207901C02FC26F3D
:40018000C42FCA2FCC7FCECFD020D802DE01026F0337046C050508250A4A0B010C030D050E101106120113081449151316261724180119021C031D011E1C2126220323193D
:4001C000246C2505280129112B262C012D01310F321F346037303E143F4140654403450B46D0480949FF4A7F4BFF4C424DA04E70500C580459045A045F0161096240630956
:400200006430650981108401851C870289108B0C950C971199209B039D099F10A114B31FB401B520BE10BF10C023C106C6EBC7C0C82CC9FFCAFFCBFFCEF0CF44D00CD804EF
:40024000D904DA04DC10DD01DF01E6C0EA40EB020102020103190620088809020A020B0810401140126419141E082002220224042720281829222A042B022F8030A033297A
:400280003768380239483B183D283E12430444204510480149104B044C045102522053125620578158105A20782079209028916892229650971199209A029B489C409D0468
:4002C0009E41A104A308A480A730C02FC20FC40FCA8FCC7FCEEFD062D22C0F0511081202150117041B05260129042B032F0530023104320133023501370C3F105401580420
:4003000059045B045D105F0182448314840385048680881589038A228C808D04902491669213930894039525975299049C049F01A230A377A563A780A816A946AA21AB39D6
:40034000AE08AF04B00FB180B470B560B680B71FB920BA02BE50BF40D21DD804D904DB04DF01008203380402064009400A400B200F40100412421704180219021A401B1083
:400380001F05208023492480256026082701280429322B222F0531403210330936083712380239483B203C80402043085D105E8968A06B027140834086219028916892204C
:4003C0009324940296509711988099209A209B409D029E409F15A206A30BA4A0A710B404C00FC21DC42BCA3FCCEFCE1FD6F0EE08AF20EC40B820BE10D804DF011F20830257
:4004000086018B019E01A602AA02B002B201B301B502BA80BE05D804D904DC01DF010004038806100A020B900E0110A8138016041708180419211A011B081F452110220148
:40044000231A271429602BA03118324138283B803F2140104110438049104B9052145901695470BC714083118C018D088F809010928094019554970A9F16A3A0B001B1088F
:40048000C02EC28DC46FCA0FCC0FCEAED00ED20CD60102080413053C0604080A09030A140D020F4C11FF141315B0160C170319C01B141C031E1421E82314254C2701291450
:4004C0002A152BE83010320F35FF39203A083E0154185604580459045B045C015D105F01802282518510876089068B098C808F809001911F920E934095209710984499025D
:400500009A319B349F08A104A332A4E7A701A8E7A902AB34AF30B007B218B30FB460B570B680B780BB20BE04D420D604D804D904DB04DC01DF0100010140042807400A4429
:400540000E100F021114152018101AC41BA01E902006210822902310251029022A402B182C042D022E083110328033053420370938843B203C803D203F04420843104F305F
:4005800058815A205F0261206380674A87408D1090A8912093249610971098A499129A409B499F14A040A120A309A401A640A740AD10AF01B308C079C2AAC446CAEFCCEFBF
:4005C000CE7ED68DD8B5E610EE80E61031203640CC30A520A6401B043F0850806302A520A640C610CE80D420D6408120A480A520A640AF01E220EE107101DC019D019D01D8
:40060000B501EC0286408F80A640B080E640122017047780822083049B80C430DE20E080E48010208C20C408E608000308030A0310031A03000F040C020100004300000081
:40064000000003003C0C82000004040000FF0000BF0F00F0A741180000F3000C3CC38100100000F308820000181C00E304084000202C400F1F1C80C08000200A00000100B8
:40068000610502000300E00C18FFFFFF62A0F0410C000000000002130404040411110001000000000000400200103010001010120000000000000000000000000000000083
:4006C0008300408083008300000000002000000B2B00000000000000000000000000000000000000000000000000000000000000000000000000000000000000000000005B
:4007000000000000000000000000000000000000000000000000000000000000000000000000000000000000000000000000000000000000000000000000000000000000B9
:400740000000000000000000000000000000000000000000000000000000000000000000000000000000000000000000000000000000000000000000000000000000000079
:400780000000000000000000000000000000000000000000000000000000000000000000000000000000000000000000000000000000000000000000000000000000000039
:4007C00000000000000000000000000000000000000000000000000000000000000000000000000000000000000000000000000000000000000000000000000000000000F9
:0200000490006A
:0400000000004005B7
:0200000490105A
:04000000BC90ACAF55
:0200000490303A
:0200000070BBD3
:0200000490402A
:4000000000000000000000000000000000000000000000000000000000000000000000000000000000000000000000000000000000000000000000000000000000000000C0
:400040000000000000000000000000000000000000000000000000000000000000000000000000000000000000000000000000000000000000000000000000000000000080
:400080000000000000000000000000000000000000000000000000000000000000000000000000000000000000000000000000000000000000000000000000000000000040
:4000C0000000000000000000000000000000000000000000000000000000000000000000000000000000000000000000000000000000000000000000000000000000000000
:0200000490501A
:0C00000000012E16106900012E22812440
:00000001FF